:100000006F002045130000001300000013000000E3
:100010001300000013000000130000001300000094
:100020001300000013000000130000001300000084
:08003000130000007300100032
:1000380000000000000000006002000064020000F0
:10004800000000009803000000000000000000000D
:100058009A0300009C03000000000000000000005C
:100068009E03000000000000A00300000000000044
:10007800A2030000A4030000A6030000A8030000D8
:10008800AA030000AC030000AE030000B0030000A8
:10009800B2030000B4030000B6030000B803000078
:1000A800BA030000BC030000BE030000C003000048
:1000B800C2030000C4030000C6030000C803000018
:1000C800CA030000CC030000CE030000D0030000E8
:1000D800D2030000D4030000D6030000D8030000B8
:1000E800DA030000DC030000DE030000E003000088
:1000F800E2030000E4030000E6030000E803000058
:10010800EA030000EC030000EE030000F003000027
:10011800F2030000F4030000F6030000F8030000F7
:10012800FA030000FC030000FE03000000040000C6
:100138000204000004040000060400000804000093
:100148000A0400000C0400000E0400001004000063
:100158001204000014040000160400001804000033
:100168001A0400001C0400001E0400002004000003
:1001780022040000240400002604000028040000D3
:100188002A0400002C0400002E04000030040000A3
:100198003204000034040000360400003804000073
:1001A8003A0400003C0400003E0400004004000043
:1001B8004204000044040000460400004804000013
:1001C8004A0400004C0400004E04000050040000E3
:1001D8000000000000000000000000000000000017
:1001E8000000000000000000000000000000000007
:0801F8000000000000000000FF
:10020000397101436EC619A0397141536AC866CA73
:1002100062CC5ECE19A0397101535AD056D252D455
:100220004ED64AD826DA22DC06DE330161408282CD
:1002300041114AC026C222C406C68282B24D410183
:10024000024D924C224CB24B4101024B924A224A3F
:10025000B2494101024992442244B24041018280A4
:100260007300203001A0EFF2BFFC9305700413056A
:10027000703E4127930570041305703EEF00300275
:100280003715004081451305058095273735014016
:10029000814513050540912F01A0B71702409843EF
:1002A000B706FFF841111367170098C3D843370604
:1002B0000200758FD8C39843B706F7FEFD16758FF9
:1002C00098C39843B706FCFFFD16758F98C3D843B3
:1002D000B70681FFFD16758FD8C39843B70600ECAB
:1002E000FD16758F98C33707FF0098C723A607022E
:1002F00002C402C69843C166558F98C3B716024020
:1003000005679C42F18F3EC6A24785073EC4B247AF
:1003100081E7A247E397E7FEB71702409C43139794
:10032000E7006357070685473EC632478547631F88
:10033000F704B7170240D843B706C1FFFD16D8C36C
:10034000D843D8C3D84313670740D8C3D843758F61
:10035000D8C3D843B7062900558FD8C39843B706EA
:100360000001558F98C3984393166700E3DD06FE9E
:10037000D843B7160240719BD8C3D84313672700F0
:10038000D8C32147DC42B18BE39EE7FE4101828066
:1003900002C661BF01A001A001A001A001A001A0AF
:1003A00001A001A001A001A001A001A001A001A045
:1003B00001A001A001A001A001A001A001A001A035
:1003C00001A001A001A001A001A001A001A001A025
:1003D00001A001A001A001A001A001A001A001A015
:1003E00001A001A001A001A001A001A001A001A005
:1003F00001A001A001A001A001A001A001A001A0F5
:1004000001A001A001A001A001A001A001A001A0E4
:1004100001A001A001A001A001A001A001A001A0D4
:1004200001A001A001A001A001A001A001A001A0C4
:1004300001A001A001A001A001A001A001A001A0B4
:1004400001A001A001A001A001A001A001A001A0A4
:1004500001A0970100209381E13A17810020130148
:1004600061BA170500001305E56D97050020938517
:1004700065B9170600201306E6B863FAC5008322A3
:10048000050023A0550011059105E3EAC5FE1705F7
:100490000020130525B7970500209385A5B663773F
:1004A000B500232005001105E36DB5FEFD427390F4
:1004B00002BCAD4273904280B76200009382820812
:1004C00073A0023097020000938242B793E2320099
:1004D00073905230EFF07FDC970200009382E2D8F5
:1004E00073901234730020309C4513F7070113F802
:1004F000F70001C7D8413368E8008E2113F7F50FE4
:1005000039C318418146854E3D4F930F80029302B7
:100510008004214E3396DE00B3F8C5006311160344
:100520009398260033131F011343F3FF3377E3003F
:10053000B318180133E7E800639FF70550C9850633
:10054000E39AC6FD18C11307F00F6375B704544151
:100550002146854E3D4F930F800293028004414E09
:10056000B398CE0033F715016392E8021317260003
:1005700001173313EF001343F3FFB376D3003317A0
:10058000E800D98E639DF701232A15010506E319BA
:10059000C6FD54C18280E39457FA10C94DB7E39762
:1005A00057FE23281501DDB7FD571EA189475CC101
:1005B00091471CC58280B7070140635A0504DC4F90
:1005C00093560501131805013707300013F6F6009E
:1005D00013580801B376E50063500506639BE602F5
:1005E000930606010D46B316D60093C6F6FFF58FA7
:1005F00099C9135755011377F73F12073317E800CE
:10060000D98F63570504370701405CCF8280DC43F4
:1006100045BF1317B500635607008D46B396C60055
:10062000E9B7135755011377F73F12073317E8005F
:100630001347F7FFF98F6DBF6390E602370601405D
:100640005442370700F17D17F98F758F58C2D5F1E5
:10065000370701405CC382801317B500635C070055
:100660008D46B396C60093C6F6FFFD8EB707000F02
:10067000D58FF1BF1357550112073317E800134701
:10068000F7FF7D8FB707000FD98FD1B799C53717FF
:1006900002401C4F5D8D08CF8280B7170240984FF3
:1006A0001345F5FF798D88CF828099C537170240B1
:1006B0005C4F5D8D48CF8280B7170240D84F1345FD
:1006C000F5FF798DC8CF82801E2137370140930610
:1006D00007C0C207C1836300D504B7060040630C9E
:1006E000D502938606406308D502B71600401386EC
:1006F00006806302C502938606C0630ED500130709
:100700000740630AE50037570140930607C06304BA
:10071000D5006316E500BA2193F7F7F8D98F37179C
:100720000040630CE500130707406308E50093F7FA
:10073000F7CFFA21C207C183D98F1EA1DE215EB592
:100740009E211EB5B7370140138707C0630EE50031
:1007500093870740630AF500B7570140138707C026
:100760006304E5006314F5009C251EB985475EA966
:1007700082801E31922103D82500C207C183F99BD4
:10078000C207C1831EB11E3156211A2DC207C18373
:10079000420741831377C7F8518F9225F59BC20614
:1007A00033660601D18F37360140130806C0C18277
:1007B000630E050113060640630AC5003756014063
:1007C000130806C0630405016310C502B225DD9B52
:1007D00003D8E500D18FD221ED9B93F6F6CFD18FD0
:1007E000D22533660601D18E56A11AADFA215AB927
:1007F0001EB182801E3165771307F7CFC207C18310
:10080000BD9BC207C1831EB11E31562103D885008E
:10081000C20713960601162DC18393F7F7FD758F56
:1008200096214182A206558FB62142074183B3E645
:1008300006019206D58FB7360140C207138806C05D
:10084000C183630E050193860640630AD500B7563F
:100850000140138806C063040501631ED502B62556
:1008600093F7F7F703D8C5009206D58FD621C207B4
:10087000C183920693F7F7FBD58FFD769386F63FFB
:10088000F18EF225C207C183336606010A06D18EB6
:1008900013960601418252A11AADFA211ABD1EB16A
:1008A00082801E3103D88500C207C18393F7F7EF1A
:1008B000C207C1831EB11E3156215A2DC20713969D
:1008C00006014207962141831377C7F8558FB62159
:1008D000C18393F7F7DFB3E60601A206D58FB736DB
:1008E0000140C207138806C04182C183630E05011F
:1008F00093860640630AD500B7560140138806C0A8
:1009000063040501631FD502FD769386F67FF58F9C
:10091000B62503D8C500A206D58FD621C207C1834C
:10092000A20693F7F7BFD58FF576FD16F18EF22567
:10093000C207C183336606011206D18E13960601E3
:10094000418252A15AADFA215ABD1EB182802310B4
:1009500005002311050023120500231305002314AD
:1009600005002315050023160500231705008280C6
:100970001E2189C593E717001EA18280C207C1838B
:10098000F99BC207C183CDBF8357450491C5216739
:10099000D98F2312F5048280C607C583DDBF1E21CF
:1009A00089C593E707081EA18280C207C18393F718
:1009B000F7F7C207C183C5BF1E2DC207C183DD9BE8
:1009C000DD8D0EAD82801A2DFD779387F77FF98F2D
:1009D000A205CD8FC207C1831EAD82805E2DC207E6
:1009E000C183DD9BDD8D4EAD82800EBD82804EBD0C
:1009F0008280EFF2FF8379712A84AE8413050002AE
:100A000085456931854511454D3185450545BD39DA
:100A1000854505654D364808413E8D473ECC371526
:100A20000140E1473ECE4C08996713050540FC8222
:100A3000653C8545114595396084371400402C008C
:100A40001305048064862317010023150100230881
:100A500001009D390810E53DC167938707060C101A
:100A6000130504803ED023140102231301025933DD
:100A70000C1013050480353513050480A145A137FA
:100A800013050480A145993F130504808545013F66
:100A9000854513050480E93D45616FF0AFFBEFF23A
:100AA0002FF92A8409657971AE8441058545F93E9F
:100AB0004808DD3C8D473ECCE1473ECE4C089307CD
:100AC000000C37150140FC820534854509657D3EE3
:100AD000608437340140130504408545648623173C
:100AE00001002315010023080100793D2C001305A6
:100AF0000440D93E0810A13DC167938707060C103A
:100B0000130504403ED02314010223130102953142
:100B10000C1013050440F93913050440A145693D43
:100B200013050440A1454535130504408545853D21
:100B30008545130504402D3D45616FF0AFF1000080
:00000001FF
