:100000006F10F06E130000001300000013000000DA
:100010001300000013000000130000001300000094
:100020001300000013000000130000001300000084
:08003000130000007300100032
:100038000000000000000000FA1C0000FE1C000088
:1000480000000000341E0000000000000000000056
:10005800361E0000381E00000000000000000000EE
:100068003A1E0000000000003C1E000000000000D6
:100078003E1E0000401E0000421E0000441E0000FC
:10008800461E0000481E00004A1E00004C1E0000CC
:100098004E1E0000501E0000521E0000541E00009C
:1000A800561E0000581E00005A1E00005C1E00006C
:1000B8005E1E0000601E0000621E0000641E00003C
:1000C800661E0000681E00006A1E00006C1E00000C
:1000D8006E1E0000701E0000721E0000741E0000DC
:1000E800761E0000781E00007A1E00007C1E0000AC
:1000F8007E1E0000801E0000821E0000841E00007C
:10010800861E0000881E00008A1E00008C1E00004B
:100118008E1E0000901E0000921E0000941E00001B
:10012800961E0000981E00009A1E00009C1E0000EB
:100138009E1E0000A01E0000A21E0000A41E0000BB
:10014800A61E0000A81E0000AA1E0000AC1E00008B
:10015800AE1E0000B01E0000B21E0000B41E00005B
:10016800B61E0000B81E0000BA1E0000BC1E00002B
:10017800BE1E0000C01E0000C21E0000C41E0000FB
:10018800C61E0000C81E0000CA1E0000CC1E0000CB
:10019800CE1E0000D01E0000D21E0000D41E00009B
:1001A800D61E0000D81E0000DA1E0000DC1E00006B
:1001B800DE1E0000E01E0000E21E0000E41E00003B
:1001C800E61E0000E81E0000EA1E0000EC1E00000B
:1001D8000000000000000000000000000000000017
:1001E8000000000000000000000000000000000007
:0801F8000000000000000000FF
:10020000397101436EC619A0397141536AC866CA73
:1002100062CC5ECE19A0397101535AD056D252D455
:100220004ED64AD826DA22DC06DE330161408282CD
:1002300041114AC026C222C406C68282B24D410183
:10024000024D924C224CB24B4101024B924A224A3F
:10025000B2494101024992442244B24041018280A4
:100260003D432A876373C3029377F700BDEFADE583
:10027000937606FF3D8ABA960CC34CC30CC74CC795
:100280004107E36BD7FE11E28280B306C3408A06C2
:100290009702000096966780A6002307B700A30682
:1002A000B7002306B700A305B7002305B700A304D2
:1002B000B7002304B700A303B7002303B700A302CA
:1002C000B7002302B700A301B7002301B700A300C2
:1002D000B7002300B700828093F5F50F9396850051
:1002E000D58D93960501D58D61B79396270097021A
:1002F000000096968682E78086FA9680C1171D8F49
:100300003E96E374C3F8A5B7EFF29FEF138901841B
:10031000832609002E8703AB01810111B6852A8C43
:100320003A8536CE3ACCEF50202BDA85EF5080015B
:10033000138A418483250A00370400201304040033
:10034000EF40B007832A44002AC403A541808329D3
:100350008400D685EF504028CE85EF50E027938764
:10036000018888C35044AA8503A88180B70400800F
:10037000B18CC4C384C723A607015A8532CA42C8B8
:10038000EF40507C0C40EF4050032A8DA6855A85E3
:10039000EF40507BAA84AA855685EF401002AA8DB3
:1003A000A6854E85EF407001A245AA8C6285EF506C
:1003B000A02223A4A182B7050020AA8B03850507EC
:1003C000EF5020602A8CAA856A85EF40B077AA8416
:1003D00023ACA182E2856685EF40D07623AEA18270
:1003E0002AC6A6856285EF40F07583A5C180EF40DF
:1003F000C07CAA8923A6A182AA852685EF409032D7
:10040000B248AA8A23A8A1824685CE85EF409031C2
:1004100023AAA182AA8923A891846E85E285EF4050
:1004200070722A8C23AAA184D6852685EF4090710C
:10043000AA856A85EF50401A08C0E2855685EF40CC
:100440007070AA856E85EF50201948C0CE8526852C
:10045000EF40506FAA856685EF500018424808C4E7
:100460005A85C285EF40106E5246B285EF40E07467
:10047000AA84E2854E85EF40F06CAA852685EF5070
:10048000A01548C4D6855E85EF40D06BA245EF40ED
:10049000C0722320AA00CE855E85EF40B06AF24686
:1004A000B685EF4080716247AA852320A9003A856E
:1004B000EF508012054723A4A1842386E1840561BF
:1004C000B5BBEFF2FFD64D712314010023150100D7
:1004D00023160100AA842E8923170100EF5050161D
:1004E000420583D70189418568861384018999C3B0
:1004F0001C48829783C7D18593F7F70F638A070E4D
:100500001E20638A07165C443776000013064635C2
:100510008145014582972685EF5090123E20782034
:1005200042054185B3C7E7026886C207C1877C8759
:1005300085048387F4FFEDFF23150100054793062B
:10054000F0021306C0053C85637EF7003C86C207B7
:10055000C18763C0070413861400B7750000938534
:10056000453689A03C86C207C187E3C107FEFD145A
:10057000838704006384D7006397C7003C858507A1
:10058000C207C1837C853C86FD17C207C1877C8674
:100590005DBF3C852686C207C183E1F3B7750000C5
:1005A000938505378808EF507005231401008808EB
:1005B000EF50100924843C87C204C207C187335519
:1005C000F502C180050563E7A402B77500004A86FD
:1005D000938505388808EF5070022C847C30900891
:1005E0008505B385F5025C440145C205C18182974A
:1005F00071618DB12315010038853C87C207C18721
:100600006348F7023C85980A2C84BA97238007EC4C
:100610007C3085051008B385F5025C440145C205B0
:10062000C18182973C848507C207C1837C8441B71E
:100630008808EF50F000388534843C87C207C187B2
:10064000B387D702BA97E36FF5FA3C8530843887D1
:100650008C0AAE97420741873307C7023485AE96AE
:10066000BA9783C707F02380F6EC3C858507C2075D
:10067000C1837C8551B71306000881458808CD36B3
:10068000B7750000CA8626869385C5388808EF505E
:10069000E0761C4488088297A1BFEFF2DFB79D6423
:1006A0002E8A32890144938484686355240383A984
:1006B0008400930500044E85EF2060247DD9B307A4
:1006C0008A00838507004E850504C205C181EF209D
:1006D0008022E1BF4A8595BE21ED83C7418193F712
:1006E000F70FB9C79387C185982311C301A0EFF213
:1006F0009FB205474111B2842E8498A31309F00FCD
:100700003124C169A68522856D3B02C402C602C49C
:10071000A247E369F9FE02C6B24763E63701A24782
:1007200085073EC4F5B70100B24785073EC6EDB761
:1007300082801DE103C7D1851377F70F11CFEFF248
:100740003FAFB2873775000036861305C532AE86D7
:10075000BE85EF50C066FDBC8280C1771CC1FD57CD
:100760005CC1232405002326050023280500828080
:100770000C419387018918498CC3104554454C415D
:1007800098CB90C7CCC3D4C70547A38EE1848280A1
:1007900063DA05009307D0021CA1050541118147CA
:1007A000A94635A0E5FD930700031CA18280180827
:1007B00013881700BA9733E7D502B3C5D50213568D
:1007C000F741318F118F2388E7FE9377F80FE5F11A
:1007D0008A86B6976394F6004101828003C7F7FFCB
:1007E0000505FD1713070703A30FE5FEE5B7EFF2B5
:1007F0009FA279712A842E85AE893289EF504016E6
:10080000AA84930500004E85EF40102B6351050626
:100810009307D0021CA005042685EF50801AAA85F4
:100820004E85EF40705BB777000003AA475D9309E0
:10083000F00F7D191379F90F631A3905EF50401243
:100840008146294793972600B1E42C00AE97228673
:100850000506639DF5041386160022969307E002B1
:1008600036941CA035E1930700031CB031A8930512
:1008700000004E85EF40301645F193070003130743
:10088000E0021CA018B03CA04561C1B2D285EF4087
:10089000702B45B71018B29733E6E402850693F63D
:1008A000F60F23ACC7FCB3C4E40269BF03A7C7FFBC
:1008B000F1171358F7413347E8003307074113078F
:1008C0000703A30FE6FE69B7814729479386170000
:1008D0000C188A07AE97B365E5023345E50223A6F7
:1008E000B7FE93F7F60F7DF174088A07B697E38D8C
:1008F000F6F803A7C7FF0506F1179355F7412D8FAB
:100900000D8F13070703A30FE6FED5B79387018664
:100910009843050798C38280EFF2FF8F41111307B8
:100920005002930630021306400693058006138595
:10093000018CEF00F07D83A781858964938404F4A2
:10094000B3D79702130540068145A9491D4A33854F
:10095000A702EF00B03C9307F00F01469305B006E5
:100960001385018C7C87EF00D07D1D46E5451385FE
:10097000018CEF00107D3C87C207C1879DC73C8773
:10098000E5451385018CFD17C207C1877C87EF0001
:10099000107FAA8A03A581858145335595023305C9
:1009A0003503EF00B037E3984AFD3C87C207C187A3
:1009B00063D0070237760000B77500000145930643
:1009C000F0041306865F93854561A533054589A824
:1009D00001469305B0061385018CEF009076114611
:1009E000E5451385018CEF00D0756146ED45138513
:1009F000018CEF0010750146F1451385018CEF0065
:100A0000507401469305A0061385018CEF007073A6
:100A10001385018C094693057003EF009072014520
:100A200041016FF09F82EFF20FFF411193053004F7
:100A30001385018CEF00B07493054004AA841385DC
:100A4000018CEF00D073A2042695EF4090779305B8
:100A50005004AA891385018CEF007072930560041D
:100A6000AA841385018CEF009071A2042695EF40B3
:100A700050752A89930570041385018CEF0030703E
:100A800093058004AA841385018CEF00506FA204A3
:100A90002695EF4010739305D003AA841385018C2B
:100AA000EF00F06D9305E0031385018CEF00306DCE
:100AB0009305B0031385018CEF00706C9305C003A0
:100AC0002A8A1385018CEF00906B220A5295EF4021
:100AD000506F9305F0032A8A1385018CEF00306A6A
:100AE00093050004AA8A1385018CEF005069A20ABD
:100AF0005695EF40106D377400008325845DAA8AF7
:100B00004A85EF400073635AA000B777000083A5C1
:100B1000C75D4A85EF40502C2A898325845D268550
:100B2000EF402071635AA000B777000083A5C75D2E
:100B30002685EF40702AAA848325845D4E85EF4088
:100B4000406F635AA000B777000083A5C75D4E854C
:100B5000EF409028AA898325845D5285EF40606D1F
:100B6000635AA000B777000083A5C75D5285EF40A8
:100B7000B0262A8A8325845D5685EF40806B635AB0
:100B8000A000B777000083A5C75D5685EF40D0244D
:100B9000AA8A5685EF40506F2AC452852EC6EF4070
:100BA000B06E2246B2461384418AEF200018B77710
:100BB000000003A6075E83A6475EEF30A040B7772C
:100BC000000003A6875E83A6C75EEF209059EF4022
:100BD00070762A8A08C84E85EF40106BB7790000FE
:100BE00003A6095F83A6495FEF20B057EF409074DA
:100BF00008C04A85EF40506903A6095F83A6495F94
:100C0000EF203056EF4010732A8948C02685EF4008
:100C1000B06703A6095F83A6495FEF209054EF40B9
:100C20007071B705008008C4B3C525015285EFF087
:100C3000AFED83A741841CCC41016FF00FE1EFF2CF
:100C40002FDF9D6703A4C765C1441309000804C8CA
:100C500044C8AA85232A24010545EF10E00504C8ED
:100C60002328240144C86FF0EFDEEFF2CFDA138BB4
:100C7000E181AA8903450B00377A0000AE843289EE
:100C800033B5A9001306000593050A633684938AD9
:100C9000F181EFF07FA403C50A0013061005930548
:100CA0000A6333B5A400EFF03FA303450B0013061E
:100CB000200593050A633335A900EFF0FFA103C5B2
:100CC0000A001306300593050A633335A400EFF0DC
:100CD000BFA003A78181854793F9F90F1379F90F15
:100CE00093F4F40F1374F40F1305A00263E7E706FF
:100CF000B93781450545EF00307C9385290093F590
:100D0000F50F0545EF00507B81450545EF00D07A92
:100D10009305290093F5F50F0545EF00F0791305CC
:100D2000B002313F81450545EF00107993851400ED
:100D300093F5F50F0545EF00307881450545EF0047
:100D4000B0779305140093F5F50F0545EF00D076C5
:100D50001305C002ED356FF04FCFD5358145054500
:100D6000EF0090759385190093F5F50F0545EF0099
:100D7000B07481450545EF0030749305190093F573
:100D8000F50F0545EF0050731305B0024D3D814549
:100D90000545EF0070729385240093F5F50F054526
:100DA000EF00907181450545EF0010719305240017
:100DB00059BFEFF2EFC703C6E18183C6F1818145D8
:100DC00001453304D602FD167D16C2064206C182D5
:100DD0004182613D19E06FF0EFC783D5418605453B
:100DE0007D14EF00F06EFDB7EFF28FC403C6E18112
:100DF00083C6F181AA8481453304D602FD167D168F
:100E0000C2064206C18241820145853519E06FF074
:100E10006FC4A6850545EF00B06B7D14C5BF23AC3C
:100E2000A18085461387E1819387F18163E9A6005C
:100E3000930600F814A3130700FA98A38280930680
:100E400000FA14A3130700F8CDBF239EA1802392BC
:100E5000B1868280EFF24FBB2A8B03C5E181B77464
:100E60000000AE8932849385046313068012333503
:100E7000AB00EFF07F8603C5F181130690129385D6
:100E8000046333B5A900EFF03F8599473304F402BA
:100E9000138A79009D679387C73A420A0149135A1A
:100EA0000A01994B3E9433062B0142064182D286B9
:100EB000CE8532855D3B834A04F4A14493F71A0042
:100EC00095C383D5C181FD14054593F4F40FEF005C
:100ED000306093DA1A00FDF005090504E31579FD89
:100EE0006FF00FB683D54186F9BFEFF2CFB2AA8477
:100EF00003C5E181377400002E8933B5A400930542
:100F00000463B28913069014EFF00FFD03C5F1815D
:100F1000930504631306A0143335A900EFF0CFFB4B
:100F20000144B38789000386070019E26FF0EFB12F
:100F300013153400269542050504CA8541814204F3
:100F4000113F4180F9BFEFF20FADAA8903C5E181DE
:100F5000B774000041112E8A33B5A900938504634C
:100F60003289130620163684EFF00FF703C5F1819E
:100F700013063016938504633335AA00EFF0CFF5DE
:100F8000130640169385046333358000EFF0CFF4E9
:100F900013065016938504631335B400EFF0CFF3B6
:100FA0001306140093050002480002C202C402C6E0
:100FB000EFF00FABA54763F68702CA854800EFF054
:100FC0002FFD5000D2854E850D3741016FF0EFA700
:100FD000B387E7027D141374F40F7DF83369F902C7
:100FE000E9BF85472947D5BFEFF2EFA2AA8A03C51B
:100FF000E181B774000001112E8B33B5AA009385EF
:101000000463B2891306D01A36843A8AEFF0CFEC23
:1010100003C5F1811306E01A938504633335AB00F1
:10102000EFF08FEB1306F01A9385046333358000DD
:10103000EFF08FEA1306001B9385046313359400C9
:10104000EFF08FE91306101B9385046333354001DD
:10105000EFF08FE81306201B9385046313357A00A5
:10106000EFF08FE73306440109069305000268009C
:1010700002C602C802CA02CC230E0100EFF04F9E46
:10108000A54763FB87045286CE856800EFF02FF6F4
:101090007000DA855685913D05616FF00F9B2685BE
:1010A000CA85EF40202A7D14AA841374F40F65F8D2
:1010B0004E85EF40F00A2A842685EF40700A3345BA
:1010C000A402EF401010A685EF40C027AA854E85E8
:1010D000EF408050AA8945BFB777000083A4C7645A
:1010E000B777000003A9475DD9B7EFF2CF92377405
:1010F00000000111930504631306502A0545EFF023
:10110000AFDD930504631306602A0545EFF0CFDCDD
:1011100003A681851308F00F130720029307F00F31
:1011200093060002098281450545EF005021C14622
:1011300001468545130570060529C14601468545CA
:10114000130570021521C146014685451305400669
:101150002129C146054685451305000631219384A2
:10116000818188400964130404F455396800EFF064
:10117000CFDE85477C8683C7E1816800130A0008BB
:101180007C8783C7F181FC808567A107FC81B71745
:1011900000009387A7EE3ECCB7170000938727DBAC
:1011A0003ECEEFF0EFDC9D6783A9476583A781857D
:1011B000294523AA4901B3D7870281453385A70270
:1011C000B12E03A5818523A84901930980073355D2
:1011D000850281453305350391264545EFF03FA64D
:1011E00003A58185814533558502330535033D26A9
:1011F0001305100BEFF0BFA485450545EF00D02B7C
:101200009305C0020545EF00302B9305D00205453C
:10121000EF00902A1305200BEFF07FA285450545CE
:10122000EF0090299305C0020545EF00F0289305D3
:10123000D0020545EF0050281305300BEFF03FA01A
:1012400085450545EF0050279305C0020545EF0091
:10125000B0269305D0020545EF00102685450545CB
:10126000EF0090259305C0020545EF00F02493059B
:10127000D0020545EF0050241305400BEFF03F9CD2
:101280009D450545EF0050231305000CEFF03F9BF3
:101290009305200A0545EF00302289450545EF00FA
:1012A000B021930540080545EF0010211305100CEF
:1012B000EFF0FF989305500C0545EF00F01F130564
:1012C000200CEFF0DF97A9450545EF00F01E8145A2
:1012D0000545EF00701E1305300CEFF05F96930587
:1012E000A0080545EF00501D9305A0020545EF003D
:1012F000B01C1305400CEFF09F949305A008054522
:10130000EF00901B9305E00E0545EF00F01A130562
:10131000500CEFF0DF92B9450545EF00F0191305C9
:101320006003EFF0DF919C4005476381E71E63890E
:10133000071C0947638EE71C0D47638EE71C1305E6
:10134000000EEFF0DF8FBD450545EF00F016E945D3
:101350000545EF007016BD450545EF00F015E14568
:101360000545EF0070159305F0020545EF00D01418
:10137000930580020545EF003014930500020545F2
:10138000EF009013930520020545EF00F012FD4594
:101390000545EF007012ED450545EF00F01193058E
:1013A00030020545EF005011930570030545EF002D
:1013B000B01081450545EF0030109D450545EF0013
:1013C000B00F89450545EF00300FC1450545EF00D9
:1013D000B00E1305100EEFF09F86BD450545EF00DA
:1013E000B00DED450545EF00300DBD450545EF005D
:1013F000B00CDD450545EF00300C93053003054585
:10140000EF00900B9305C0020545EF00F00A93052D
:1014100090020545EF00500A9305E0020545EF00F4
:10142000B009930500030545EF001009930500037B
:101430000545EF007008930590030545EF00D007C0
:101440009305F0030545EF00300781450545EF00A2
:10145000B0069D450545EF0030068D450545EF007A
:10146000B005C1450545EF0030051305A002EFF0BA
:101470000FFD81450545EF00300489450545EF0026
:10148000B00381450545EF0030039305200805456D
:10149000EF0090021305B002EFF06FFA81450545A9
:1014A000EF0090018D450545EF0010018145054590
:1014B000EF009000930530080545EF00E07F13052D
:1014C000000FEFF0CFF785450545EF00E07E1305EF
:1014D000600FEFF0CFF681450545EF00E07D130585
:1014E000A003EFF0CFF595450545EF00E07C13052F
:1014F0009002EFF0CFF4EFF0DF8B05616FE0FFD4E7
:101500009305000C0545EF00207B15BD8145DDBF2F
:101510009305000AC5BF93050006EDB7B7F700E0D5
:1015200023A007008146014794C7D8C7054798C341
:1015300037F600E018465C4663E6F500E39CB7FE2C
:10154000E37AE5FE8280135735009376C7011D6765
:101550001307076536971C43984785473395A700BF
:10156000798D3335A0008280EFE2FFCA411102C2BB
:1015700002C402C69307F00F6303F5061354550027
:101580001D889374F5003689328AAE8921EC854531
:101590001145EF0050398547B3949700C204C180CC
:1015A00064826399F90093170901C183A18391E3D0
:1015B0008D473EC49D67938707650A043E940040AB
:1015C0001379F90F4C0022854AC6EF00F01A8547BF
:1015D0006397F9005286A6852285EF00D026410147
:1015E0006FE0BFC685476315F4008545214555B7B3
:1015F00089476315F4008545414561BF8D476316F2
:10160000F40085451305000269B79147E315F4F826
:10161000854513050004B5BF41112AC6B24713879B
:10162000F7FF3AC6E5FF41018280EFE27FC01C412F
:101630009D649384046513D757000A0726971843BF
:101640000544BD8BB317F4001CCB5C412A89484587
:1016500013D757000A0726971843BD8BB317F4001A
:101660001CCB5D3F832749000325C90013D75700D2
:101670000A0726971843BD8BB317F4005CCB693F6C
:1016800003270900935757008A07BE949C403D8B5F
:101690003314E400C0CB6FE0FFBBEFE27FB95C41E5
:1016A0001D691309096513D757000A074A9718439C
:1016B0008544BD8BB397F4005CCB1C412A8448451C
:1016C00013D757000A074A971843BD8BB397F40006
:1016D0005CCB99371C40484413D757000A074A97F8
:1016E0001843BD8BB397F4001CCB3D37584048449A
:1016F000935757008A073E99832709003D8BB3947F
:10170000E40084CB113F6FE0FFB4EFE2DFB09D64F3
:1017100041112A8425499384046585497D191379EB
:10172000F90F4844631009061C40054913D75700B8
:101730000A0726971843BD8BB317F9005CCBE93D28
:101740001C40484413D757000A0726971843BD8BFF
:10175000B317F9001CCBC9354840EFF0DFDE1C4061
:10176000AA89484413D757000A07BA949840BD8BFA
:101770003319F900232A2701453513B51900410112
:101780006FE0BFAC5C4093968501E18613D75700AC
:101790000A072697BD8B1843B397F90063D0060458
:1017A0001CCB860593F5F50F2EC6BD351C4048446D
:1017B00013D757000A0726971843BD8BB397F90034
:1017C0001CCB993D1C40B24513D757000A072697FA
:1017D0001843BD8BB397F9005CCB89B75CCBD1B70D
:1017E000EFE27FA31C419D649389046513D75700E2
:1017F0000A074E9718432A840549BD8B4845B317FD
:10180000F9005CCB2E8AEFF03FE1584093840465E9
:10181000854A935757008A07CE979C433D8B3319CF
:10182000E90023A82701A5490149FD1993F9F90FFA
:101830004844639709081C40854913D757000A0795
:1018400026971843BD8BB397F9005CCBEFF0DFDC34
:101850001C40484413D757000A0726971843BD8BEE
:10186000B397F9005CCBEFF03FDB5C4013D7570038
:101870000A072697BD8B1843B397F90063080A0837
:101880001CCB1C404844854913D757000A072697AC
:101890001843BD8BB397F9001CCBEFF0FFD71C406A
:1018A000484413D757000A07BA949840BD8BB399A0
:1018B000F900232A3701EFF03FD64A856FE0FF9801
:1018C000EFF09FD51C404844060913D757000A077C
:1018D00026971843BD8BB397FA005CCBEFF0DFD3AC
:1018E0001C4048441379F90F13D757000A0726976D
:1018F0001843BD8BB397FA001CCBEFF0FFD14840E3
:10190000EFF07FC41DD11369190005B75CCB95BFFB
:10191000EFE21F92AA87411194C3D8C38CA7D0C706
:1019200036850546C14685453AC6EFF0FFC33247C6
:10193000D146054685453A85EFF01FC341016FE06A
:101940007F91EFE2FF8E41112A8432C6AE84EFF020
:10195000DFCD0C242285860593F5E50FEFF0FFDA45
:10196000A6852285EFF07FDA32462285B285EFF038
:10197000DFD92285EFF07FD241016FE0BF8DEFE22A
:101980003F8B2A84AE84EFF05FCA0C242285860543
:1019900093F5E50FEFF07FD7A6852285EFF0FFD610
:1019A0002285EFF09FC80C242285860593E515005B
:1019B00093F5F50FEFF07FD585452285EFF05FE2D7
:1019C000AA842285EFF07FCD26856FE0BF88EFE205
:1019D0003F86AE843284368929E5930680310546F8
:1019E00085451545EFF05FB88947639AF40893067B
:1019F0008031054685451D45EFF01FB78547631EBD
:101A0000F40C93064030054681451945EFF0DFB5EB
:101A100093060031014685454A85EFF0FFB46FE03B
:101A20007F83C1476319F5009306803105468545DC
:101A30001305300245BF930700026319F5009306B2
:101A40008031054685451305D00269BF9307000321
:101A5000E30CF5FC930700046319F500930680314D
:101A6000054685451305A004B5BFB77500001306EC
:101A70009002938545660145EFE01FC6B5B7C9479B
:101A80006399F4009306803105468545130550029D
:101A9000A5B7930720026399F400930680310546A9
:101AA00085451305F00289BF93072003E38CF4FCFE
:101AB000930720046399F400930680310546854519
:101AC0001305C00415BFB775000013060003938506
:101AD00045660145EFE05FC015B7C5476319F400DF
:101AE00093064030054681451305400205B793072C
:101AF00010026319F4009306403005468145130532
:101B0000E00229B7930710046319F40093064030EC
:101B1000054681451305B004D5BD93071003E301C5
:101B2000F4FC9307F00FE305F4EEB775000013061D
:101B30008003938545660145EFE01FBAD1BDEFE212
:101B4000AFEC3E8B9D67BA8A9387C7671317250052
:101B5000BA9783A9070001112A894E85AE84B28BFA
:101B6000368A428402C602C802CA02CC231E010081
:101B70003D2585450545452BC1476310FA0CC947EE
:101B80006398FA00C5476315FB0085450545C921E3
:101B90006315090C854505657923A2865A86D68585
:101BA0005285EFF0DFE2B70704013EC623180100BB
:101BB00085476386F40CDDCC09476386E40C8D46CB
:101BC0006385D40C03A481859307F00F3354740309
:101BD0004204418063EE870A9307F00763ED870AAA
:101BE0009307F00363EC870AFD4763EC870ABD4760
:101BF00063EC870A9D4763EB870A8D4763EA870A90
:101C0000854763E9870AB77500001306D0089385F6
:101C100045660145EFE05FAC93070020FC836C0054
:101C20009D474E85FC86E084231D0100752B85456C
:101C30004E85D52B05616FE0AFE093070004E319F3
:101C4000FAF493072004E395FAF493071004E311E0
:101C5000FBF48545371520001DBF85476316F90045
:101C600085451165C52115BF8947E318F9F28545FA
:101C70002165CDBF23190100231A0100A1B7231943
:101C80000100E48281B7E481C5BFF881FC821DBFF9
:101C90001304800351B713040003BDBF1304800273
:101CA000A5BF130400028DBF6144BDB74144ADB769
:101CB00021449DB701448DB79D670A059387C76787
:101CC000AA9798434EA71E2793F70708EDFF828037
:101CD0009D670A059387C767AA979C4313D785001A
:101CE000DAA79A27137707086DFF93F5F50FCEA7AC
:101CF0009A27137707086DFF82807300203001A0B8
:101D0000EFE20FD3930570041305703EEF00B06946
:101D1000930570041305703EEF009075EF00905925
:101D2000EF00903EEF00504AEFE01FBFEF00106061
:101D3000EF007064E5BFB71702409843B706FFF89D
:101D400041111367170098C3D84337060200758FF7
:101D5000D8C39843B706F7FEFD16758F98C398430E
:101D6000B706FCFFFD16758F98C3D843B70681FFF1
:101D7000FD16758FD8C39843B70600ECFD16758F16
:101D800098C33707FF0098C723A6070202C402C6FC
:101D90009843C166558F98C3B716024005679C42A9
:101DA000F18F3EC6A24785073EC4B24781E7A247EE
:101DB000E397E7FEB71702409C431397E70063578A
:101DC000070685473EC632478547631FF704B717A6
:101DD0000240D843B706C1FFFD16D8C3D843D8C3C5
:101DE000D84313670740D8C3D843758FD8C3D843A7
:101DF000B7062900558FD8C39843B7060001558F01
:101E000098C3984393166700E3DD06FED843B716E0
:101E10000240719BD8C3D84313672700D8C321471A
:101E2000DC42B18BE39EE7FE4101828002C661BFC6
:101E300001A001A001A001A001A001A001A001A09A
:101E400001A001A001A001A001A001A001A001A08A
:101E500001A001A001A001A001A001A001A001A07A
:101E600001A001A001A001A001A001A001A001A06A
:101E700001A001A001A001A001A001A001A001A05A
:101E800001A001A001A001A001A001A001A001A04A
:101E900001A001A001A001A001A001A001A001A03A
:101EA00001A001A001A001A001A001A001A001A02A
:101EB00001A001A001A001A001A001A001A001A01A
:101EC00001A001A001A001A001A001A001A001A00A
:101ED00001A001A001A001A001A001A001A001A0FA
:101EE00001A001A001A001A001A001A001A097F103
:101EF000FF1F93812198176100201301A11017651E
:101F00000000130565BE97E5FF1F9385A50F138697
:101F1000818263FAC5008322050023A055001105C4
:101F20009105E3EAC5FE138581829385418D637730
:101F3000B500232005001105E36DB5FEFD42739049
:101F400002BCAD4273904280B76200009382820867
:101F500073A0023097E2FFFF9382420E93E23200B9
:101F600073905230EFF03FDD97020000938282D9E8
:101F700073901234730020309C4513F7070113F857
:101F8000F70001C7D8413368E8008E2113F7F50F39
:101F900039C318418146854E3D4F930F800293020D
:101FA0008004214E3396DE00B3F8C500631116039A
:101FB0009398260033131F011343F3FF3377E30095
:101FC000B318180133E7E800639FF70550C9850689
:101FD000E39AC6FD18C11307F00F6375B7045441A7
:101FE0002146854E3D4F930F800293028004414E5F
:101FF000B398CE0033F715016392E8021317260059
:1020000001173313EF001343F3FFB376D3003317F5
:10201000E800D98E639DF701232A15010506E3190F
:10202000C6FD54C18280E39457FA10C94DB7E397B7
:1020300057FE23281501DDB7FD571EA189475CC156
:1020400091471CC5828019C20CC982804CC982800C
:10205000B7070140635A0504DC4F93560501131876
:1020600005013707300013F6F60013580801B37660
:10207000E50063500506639BE602930606010D46E4
:10208000B316D60093C6F6FFF58F99C913575501BD
:102090001377F73F12073317E800D98F635705040A
:1020A000370701405CCF8280DC4345BF1317B50082
:1020B000635607008D46B396C600E9B7135755011E
:1020C0001377F73F12073317E8001347F7FFF98F2D
:1020D0006DBF6390E602370601405442370700F1B6
:1020E0007D17F98F758F58C2D5F1370701405CC352
:1020F00082801317B500635C07008D46B396C60057
:1021000093C6F6FFFD8EB707000FD58FF1BF1357AB
:10211000550112073317E8001347F7FF7D8FB70704
:10212000000FD98FD1B799C5371702401C4F5D8D6D
:1021300008CF8280B7170240984F1345F5FF798D7D
:1021400088CF828099C5371702405C4F5D8D48CF9C
:102150008280B7170240D84F1345F5FF798DC8CF5D
:10216000828099C5371702405C475D8D48C78280E1
:10217000B7170240D8471345F5FF798DC8C782804D
:1021800099C5371702401C4B5D8D08CB8280B7176D
:102190000240984B1345F5FF798D88CB8280EFE2A2
:1021A0002F89B7370140631AF50085450565553F0E
:1021B000814505657D376FE0EF89B747004013879C
:1021C00007806319E500854511655D3F814511650F
:1021D000453FD5B7938707C0E31FF5FC85452165CB
:1021E000453781452165EDB71A218D67938707042F
:1021F000B6217D8F9E21D58FD621D58FF621D58F03
:102200009625D58FB625D58FD625D58FF625D58F92
:10221000D98F1EA15A2DFD779387F77FF98F5EAD79
:102220009E291EA982801E2189C593E707041EA14D
:102230008280C207C18393F7F7FBC207C183C5BF82
:102240001E319206558EC207C183F99BC207C18316
:102250001EB11A2D1E31B736014042074183137754
:10226000C7F0518FC2074207138606C0C18341835E
:102270006300C50437060040630CC5021306064020
:102280006308C50237160040130806806302050381
:10229000130606C0630EC50093860640630AD50088
:1022A000B7560140138606C06304C5006319D50004
:1022B000F59BCD8F93E717001AAD1EB18280D59B99
:1022C000CDBF1E312206B206C207C183BD9BC20725
:1022D000C1831EB18358850185671A319387F7CF73
:1022E000D18EB3F71701D58F13984500B73601404B
:1022F00042074208C207138606C0418313580801EB
:10230000C1836300C50437060040630CC502130691
:1023100006406308C5023716004093080680630232
:102320001503130606C0630EC50093860640630AB4
:10233000D500B7560140138606C06304C500631B71
:10234000D5001377F7FD3367E800136707011EAD6B
:102350001AB182801377F7F54D8FC5BF1E2137372D
:102360000140930607C0C207C1836300D504B706C6
:102370000040630CD502938606406308D502B71669
:102380000040138606806302C502938606C0630E72
:10239000D50013070740630AE5003757014093064D
:1023A00007C06304D5006316E500BA2193F7F7F878
:1023B000D98F37170040630CE50013070740630807
:1023C000E50093F7F7CFFA21C207C183D98F1EA189
:1023D000DE215EB59E211EB5B7370140138707C0C9
:1023E000630EE50093870740630AF500B757014085
:1023F000138707C06304E5006314F5009C251EB92C
:1024000085475EA982801E31922103D82500C2072C
:10241000C183F99BC207C1831EB11E3156211A2DFB
:10242000C207C183420741831377C7F8518F9225B2
:10243000F59BC20633660601D18F3736014013087B
:1024400006C0C182630E050113060640630AC5007B
:1024500037560140130806C0630405016310C50226
:10246000B225DD9B03D8E500D18FD221ED9B93F6F9
:10247000F6CFD18FD22533660601D18E56A11AAD83
:10248000FA215AB91EB182801E3165771307F7CF42
:10249000C207C183BD9BC207C1831EB11E31562135
:1024A00003D88500C20713960601162DC18393F742
:1024B000F7FD758F96214182A206558FB6214207FE
:1024C0004183B3E606019206D58FB7360140C207B5
:1024D000138806C0C183630E050193860640630A14
:1024E000D500B7560140138806C063040501631E7A
:1024F000D502B62593F7F7F703D8C5009206D58F16
:10250000D621C207C183920693F7F7FBD58FFD76DC
:102510009386F63FF18EF225C207C183336606012A
:102520000A06D18E13960601418252A11AADFA21F4
:102530001ABD1EB182801E3103D88500C207C18337
:1025400093F7F7EFC207C1831EB11E3156215A2DF2
:10255000C207139606014207962141831377C7F8F5
:10256000558FB621C18393F7F7DFB3E60601A206C4
:10257000D58FB7360140C207138806C04182C18398
:10258000630E050193860640630AD500B7560140E5
:10259000138806C063040501631FD502FD76938688
:1025A000F67FF58FB62503D8C500A206D58FD621B4
:1025B000C207C183A20693F7F7BFD58FF576FD1644
:1025C000F18EF225C207C183336606011206D18E51
:1025D00013960601418252A15AADFA215ABD1EB18D
:1025E0008280FD575EA123100500231305002311EF
:1025F0000500230405008280231005002311050037
:1026000023120500231305002314050023150500DC
:10261000231605002317050082801E2189C593E734
:1026200017001EA18280C207C183F99BC207C18324
:10263000CDBF8357450491C52167D98F2312F50477
:102640008280C607C583DDBF5E2501C6DD8D4EA530
:10265000828093C5F5FFFD8DDDBF035885001A2DDF
:102660001E31420813580801C2074207C18392066F
:102670004183137888FF93F7D7FD558EB365B80073
:102680001377C7CFD18F0EA513671710C207C18369
:102690001AAD1EB182801E2189C593E707081EA1CD
:1026A0008280C207C18393F7F7F7C207C183C5BF12
:1026B0001E2DC207C183DD9BDD8D0EAD82801A2DDC
:1026C000FD779387F77FF98FA205CD8FC207C1836E
:1026D0001EAD82805E2DC207C183DD9BDD8D4EADB8
:1026E00082804EB182801E2DC207C183CD9BC2075E
:1026F000C1831EAD1E2DDD8D0EAD82801A2DFD779E
:102700009387F73FF98F1EAD1E2DA205DD8DC20503
:10271000C1810EAD82805E2DC207C183CD9BC207F1
:10272000C1835EAD5E2DDD8D4EAD82805A2DFD776D
:102730009387F73FF98F5EAD5E2DA205DD8DC20553
:10274000C1814EAD8280EFD2BFAE9A212A84AE8481
:10275000BE21D221962511EBBE85EFF07FAEEE2093
:102760002285EFF05FF86FD0FFAE9145631AB70096
:10277000BE85EFF01FB5EE202285EFF03FF8E5B7FC
:102780002145EE206316A70A1A3092061398870097
:10279000420741831377F7EF420741831AB04A2C6F
:1027A0001A304208420541811375C5F0518D558D8F
:1027B000B736014042074205138606C041831358CD
:1027C000080141816302C40437060040630EC4025D
:1027D00013060640630AC4023716004093080680B9
:1027E00063041403130606C06300C4029386064004
:1027F000630CD400B7560140938606C06306D4002C
:10280000B7560140631ED4001377F7DF3367E80043
:10281000936707104AAC1EB02285EFF0DFEFA1B737
:10282000FD769386F65F758FD98F93E70710DDB736
:102830000A307D777D17698F1AB04A2C0567130718
:10284000F7CF698F03580402131586001396C6004C
:10285000498E518F9398C700B73601404208C2088D
:102860004207138606C01358080193D80801418314
:102870006302C40437060040630EC4021306064018
:10288000630AC40237160040130506806304A402DD
:10289000130606C06300C40293860640630CD4008E
:1028A000B7560140938606C06306D400B756014070
:1028B0006311D402F977FD173378F80033E8080183
:1028C0008567B367F8005AAC1EB02285EFF01FE6AB
:1028D00059BDA1669386F6DF3378D800B3E70701C8
:1028E0008566D58FCDB74A31828093C5F5FFC20585
:1028F000C1810EA9828093F5F51F4EA182800A2125
:102900006D8D3335A0008280EFD29F92797185451D
:1029100013050004EFF03F818D473ED491473ED62A
:10292000372501408567938707A04C101305058064
:102930002312F102EFF04FE485450545EFF0AFFEBD
:102940000565854513050580EFF0EFFD3705160099
:1029500085451305050CEFF0AFEF6800EFF07FC879
:1029600037340140C167FD176C00130504C03EC831
:1029700002C6230A0100EFF07F9E8146014613053F
:1029800004C08D45EFF07FCDA9472C08130504C086
:102990002310F102EFF03FDB130504C08545EFF093
:1029A000DFF40546130504C08545EFF0FFC91305A4
:1029B00004C08145EFF0FFD28545130504C0EFF058
:1029C000DFC545616FD01F89EFD29F86797185453C
:1029D00013050002EFF02FF58D473ED491473ED608
:1029E000371501408567938707A04C1013050540F4
:1029F0002312F102EFF04FD885450545EFF0AFF215
:102A0000854537050800EFF00FF23705138085453F
:102A10004105EFF0EFE36800EFF0BFBC3754014031
:102A2000C167FD176C00130504C03EC802C6230A27
:102A30000100EFF0BF9281460146130504C08D45A9
:102A4000EFF0BFC1A9472C08130504C02310F10201
:102A5000EFF07FCF130504C08545EFF01FE9054671
:102A6000130504C08545EFF03FBE8545130504C03E
:102A7000EFF0BFBA45616FD0EFFDEFD26FFB854736
:102A80006307F502A54701446310F502B7540140FE
:102A9000138504C0EFF03FE513140501814513854C
:102AA00004C04184EFF0FFC322856FD0AFFAB73482
:102AB0000140F9BFEFD2CFF70D45EFE04FB6EFE0A1
:102AC000CFE21305007EEFE02FB2C165FD157D4515
:102AD000EFE0AFB7377600001306866A95451545D7
:102AE000EFE0AFC0377600001306866B95451545BD
:102AF000EFE0AFBF377600001306866CE54515455D
:102B0000EFE0AFBE377600001306466D9305D002A6
:102B10001545EFE08FBD377600001306466E93052E
:102B200010041545EFE06FBC6FD0CFF2EFD24FF03D
:102B30000545EFF09FF49384C18688C02545EFF0EA
:102B4000DFF313840187C16508C0FD157D45EFE003
:102B5000CFAF904089469305D00213058007EFE080
:102B60008FBE104089469305100413058007EFE0DF
:102B70008FBD6FD02FEEEFD2AFEBEFD0DFEA83A7A0
:102B8000C18BC16513848186FD157D451CC0EFE0B6
:102B9000CFAB104005479146E5451305F005EFE042
:102BA000AFC46FD02FEBEFD2AFE879712A84AE8437
:102BB000130500028545EFF00FD785451145EFF06D
:102BC0006FD885450545EFF00FD685450565EFF0D3
:102BD0002FC84808EFF04FC68D473ECC371501404F
:102BE000E1473ECE4C08996713050540FC82EFF0A3
:102BF000AFB885451145EFF0EFD46084371400403D
:102C00002C0013050480648623170100231501009E
:102C100023080100EFF08FF40810EFF0FF9DC1676B
:102C2000938707060C10130504803ED0231401027D
:102C300023130102EFF05F850C1013050480EFF001
:102C40009F8F13050480A145EFF07FA71305048033
:102C5000A145EFF03FA8130504808545EFF0BFA321
:102C6000854513050480EFF05F9B45616FD08FDED3
:102C7000EFD20FDC2A8409657971AE844105854560
:102C8000EFF06FCA4808EFF02FBB8D473ECCE1470D
:102C90003ECE4C089307000C37150140FC82EFF044
:102CA000AFAD85450965EFF00FC86084373401404A
:102CB0001305044085456486231701002315010090
:102CC00023080100EFF0FF962C0013050440EFF0FD
:102CD000EFE80810EFF05F92C167938707060C10CA
:102CE000130504403ED02314010223130102EFF028
:102CF0008FF10C1013050440EFF00FF91305044099
:102D0000A145EFF0FF9A13050440A145EFF03F9B6A
:102D1000130504408545EFF01F98854513050440D1
:102D2000EFF0BF8F45616FD0EFD209A0B307C0406D
:102D3000370700801347F7FFD18F4111337ED7004B
:102D4000FD8306C622C4B3E7C7013703F07FAA8814
:102D50002E886367F304B307A040C98F6D8FFD838E
:102D6000D98F2E8F636EF302B70710C0B697D18F3D
:102D7000F9C313D4E64193752400B367A700135435
:102D8000F8014D8C9DE78947630BF40A8D47631F5B
:102D9000F40897570000938767978843CC4331A086
:102DA0003285B6854686C2866921B24022444101F9
:102DB0008280B367CE00B5C363016E0A630F6704F8
:102DC0003307C74151879307C00363C1E70863D83E
:102DD0000600930740FC014581456348F70046859E
:102DE000C285EF001038992105228547630FF40A48
:102DF00089476309F40855D897570000938787944B
:102E00009043D443EF108067975700009387878FD4
:102E10009043D443EF10806649BF634E0F04975729
:102E200000009387A78D8843CC4341B7B24022442A
:102E3000C285410182802244B2404101F1A09757EE
:102E400000009387278C8843CC4385B797570000B1
:102E50009387C78A8843CC4349BF8947630BC7051B
:102E6000E30FF4FC8D47E306F4F285476302F406B2
:102E7000014581451DBF975700009387278A8843E6
:102E8000CC4325B7975700009387C78B9043D44313
:102E9000EF10C05E975700009387C7862A86AE86DC
:102EA0008843CC43EF10805D09B7B7070080BD8D24
:102EB000EDBD6304F4048D47630AF40285476300A3
:102EC000F402975700009387E7868843CC43F1BD0F
:102ED00097570000938707848843CC43F9B59757E9
:102EE00000009387A7858843CC43C1B5975700005E
:102EF0009387C7838843CC434DBD97570000938782
:102F000067828843CC4355B579714AD0139915002F
:102F100022D426D256CA06D64ECE52CC5AC85EC647
:102F200013591900B70710442E84AA84AE8A634649
:102F3000F904B707F07F63CE2701630BF9006353F1
:102F4000501F974700009387677B8443C04309A8BD
:102F50007DD526862685A286A285E12CAA842E848C
:102F6000A285B2502254268502599254F249624AEF
:102F7000D24A424BB24B45618280B707DC3F635176
:102F8000F91CB707203E634DF9167D5A2686A286A6
:102F90002685A285EF1000032A86AE862A8BAE8B8B
:102FA000EF104002974700009387C77C9043D443BB
:102FB0002A89AE89EF100001974700009387077CAC
:102FC0009043D443BD244A86CE86EF00B07F974716
:102FD00000009387277B9043D443A12C4A86CE865A
:102FE000EF00507E974700009387477A9043D44381
:102FF00089244A86CE86EF00F07C974700009387AD
:1030000067799043D44335244A86CE86EF00907B7F
:1030100097470000938787789043D443192C5A86AA
:10302000DE86EF00307A974700009387A7779043BA
:10303000D4432A8BAE8B4A85CE85EF00B078974774
:1030400000009387A7769043D443EF1020434A862D
:10305000CE86EF003077974700009387A77590439F
:10306000D443EF10A0414A86CE86EF00B075974753
:1030700000009387A7749043D443EF1020404A8602
:10308000CE86EF003074974700009387A773904374
:10309000D443EF10A03E4A86CE86EF00B0722A8657
:1030A000AE865A85DE8571222686A286EF00907153
:1030B000FD572A86AE86630EFA060E0A9747000071
:1030C0009387C772D2979043D44397470000938762
:1030D000E76F3E9AEF10803A2686A286EF10003AFC
:1030E0002A86AE8603250A0083254A00EF100039A0
:1030F000AA842E84E3D60AE6370400802D8C8DB591
:1031000097470000938787649043D4431D229747D5
:103110000000938727649043D443EF00D05FE356C9
:10312000A0E63DBD974700009387475F8443C043B7
:1031300005BD2685A285EF106034AA842E840DB5C6
:10314000F520B707F33F2A84AE846356F904B70726
:10315000E63F6359F90A2A86AE86E12897470000C0
:103160009387475F9043D443014AEF10203197473C
:1031700000009387A75E9043D4432A89AE892285B5
:10318000A68545282A86AE864A85CE85EF00607DD5
:10319000AA842E84E5BBB78703406357F904174917
:1031A00000001309295C0326090083264900094A07
:1031B000EF10C02C03260900832649002A8BAE8B12
:1031C0002285A685EF0010609747000093878758F7
:1031D0009043D443B9282A86AE865A85DE85EF000F
:1031E0004078AA842E845DB39747000093870758E0
:1031F0008843CC432286A686EF00A0760D4AAA8497
:103200002E8469B3174900001309C9540326090025
:1032100083264900054AEF1060262A8BAE8B0326D1
:103220000900832649002285A6856DB7860585811C
:1032300082803708100001117D183377B80026CA44
:103240003378D80093D4450113D34601131E3700B9
:103250004EC61357D5010E089357D60193F4F47F49
:103260001373F37F06CE22CC4AC893D9F50193DEBF
:10327000F6013367C701131F350033E80701931FB9
:103280003600338E64406380D9196356C0136304DB
:10329000031CB70680009307F07F3368D800638F64
:1032A000F4369307800363C0C735FD4763CDC74736
:1032B000130500023305C541B3D7CF01B316A800EB
:1032C0003399AF00DD8E33392001B357C80133E99C
:1032D00026011D8F33092F41B3372F013306F740E5
:1032E0009317860063D40724370780007D17337453
:1032F000E600630C042C2285EF20701A130785FF6B
:1033000093070002998FB357F9003316E400D18F69
:103310003319E9006341972A3305974013061500D6
:103320007D47634DC73813070002118FB356C9009C
:103330003319E9003397E700558F3339200133699A
:10334000270133D6C70081449377790081CF137763
:10335000F90091476308F700130749003339270143
:103360004A963A899317860063D6071C1385140082
:103370009307F07FCE856304F520B70780FFFD1724
:10338000F18F9398D70113593900A607B3E82801A4
:10339000B1831375F57F9396C7005205F2406244DE
:1033A000B182FE05C98ECD8ED2444249B2494685CE
:1033B000B68505618280631E0E0A138314001373A1
:1033C000E37F63170322B367E701B368F801639DE6
:1033D000041A63870740638608443309FF41B30733
:1033E000074133362F013386C7409317860063D6D3
:1033F000074C3389EF41B307E84033B62F013386DA
:10340000C740F68991B76350C00F6300030CB7063D
:1034100080009307F07F3368D800638AF43A9307FB
:10342000800363CBC713FD4763DFC73513090EFE67
:1034300093070002B3562801630AFE001309000433
:103440003309C94133192801B3EF2F013339F00192
:103450003369D90031A2B367F801638A071C930767
:10346000FEFF638C07389306F07F6309DE1A3E8EF9
:103470000DBDB305934063910422B367E7016387F1
:1034800007329387F5FF638107449306F07F638CCF
:10349000D520BE859307800363CCB72AFD4763CF51
:1034A000B73C930700028D8F3319F700B356BF0066
:1034B000B317FF003369D900B337F0003357B700B3
:1034C0003369F9003308E84041ACB367F801638021
:1034D00007349307FEFF638A07209306F07F630893
:1034E000DE2E3E8E2DBF631E0E149386140093F7BE
:1034F000E67F63910734B367E7016395042C63802B
:10350000073EB367F801638E07303309FF01B30745
:103510000701333FE9013386E7019317860063D73C
:103520000700B70780FFFD177D8E854493777900EC
:10353000E39F07E09317D60193583900B3E8F800EA
:10354000935736001307F07F638DE404B207B1830D
:1035500013F5F47FCE8581B53369F8013339200145
:103560007A99B337E9013386E70093178600E3DFE2
:1035700007FA85049307F07F6396F418CE85130548
:10358000F07F8147814801BDC1EB6384083A9316FF
:1035900036009317D8018D82B3E8D700F689935788
:1035A0003800B3E7F800F9DB81451305F07FB70772
:1035B00008008148CDB3370680FF7D167D8E937756
:1035C0007900998CE39507D8B5B74A85EF20206D2F
:1035D00013078501FD47E3D5E7D2130685FFB3172F
:1035E000C900014905BB3369F80133392001DDB158
:1035F0003309FF413306074133342F01330486403A
:103600009317840063CD0724B3688900E39308CE41
:103610008147814981441DBFE39808F80E0593173F
:10362000D7010D81B3E8A700935737009DBF0E0562
:103630009317D7010D81B3E8A700F28493573700A1
:1036400011B73305934063820412B70680009307D5
:10365000F07F558F630DF32E9307800363CBA72074
:10366000FD4763C3A72A93070002898F3319F70028
:10367000B356AF00B317FF003369D900B337F0007A
:103680003357A7003369F9003A987E99B337F901A7
:10369000338607019A84D1BDB70680009307F07F77
:1036A000558FE319F3DE931736008D839318D801F5
:1036B000B3E81701F68993573800E5B5130715FEEF
:1036C0009306000233D7E700630AD600930600048E
:1036D0003386C6403396C7003369C90033392001A9
:1036E0003369E9000146814491B53309FF01B3070D
:1036F00007013336E9013E96931786008544E3D7E8
:1037000007E28944B70780FFFD17F18F13571900AF
:1037100013791900336927019398F70133E92801D8
:1037200013D6170015B113090EFE93070002B35606
:103730002801630AFE00130900043309C941331943
:103740002801B3EF2F013339F0013369D90059B69D
:103750003369E7013339200133892F41B3B72F0192
:103760003306F8409A84F689A5BEB367E701638201
:1037700007189307F5FF6384071C9306F07F630423
:10378000D5123E85D1BD93070002B387C741B3165A
:10379000F8003399FF0033D6CF01D18E33392001A1
:1037A000B357C80133E926013E975DBB9317360036
:1037B0008D839318D801B3E81701AE84935738006E
:1037C000F68949B3EDC33369F801E31F09DC0E053F
:1037D0009317D7010D81B368F50093573700D1B324
:1037E0006381080E931636009317D8018D82B3E8D3
:1037F000D700F6899357380091BB3309FF41B307CF
:103800000741333F2F013386E7418544D1BC0E0584
:103810009317D7010D81B368F500F28493573700F1
:1038200015B30E059317D7010D81B3E8A700935781
:10383000370029BB9307F07FE382F6D43309FF01F9
:103840003336E901B3070701B2979398F70113598B
:10385000190033E9280113D61700B684C1B933899A
:10386000EF413307E84033B62F013304C740F689F0
:1038700049B43369E7013339200101BD938705FE5F
:1038800093060002B357F700638AD500930600043D
:10389000B385B6403317B700336FEF003339E0011B
:1038A0003369F90055BD931736008D839318D801FD
:1038B000B3E8170193573800EDB1B368C900E39737
:1038C00008C68147814959B13389EF41B307E840C0
:1038D00033B62F013386C740F689854411B4931659
:1038E00036009317D8018D82B3E8D700935738007C
:1038F000B1B9931636009317D8018D82B3E8D7007B
:10390000AA84935738003DB9930705FE9306000239
:10391000B357F700630AD500930600043385A64029
:103920003317A700336FEF003339E0013369F90033
:10393000A9BB81451305F07FB7070800A9BC33096F
:10394000FF01B30707013336F9013E9675B39316AD
:1039500036009317D8018D82B3E8D700935738000B
:1039600089B1397193D7450122DC4AD856D22A89C8
:103970001394C50006DE26DA4ED652D45AD05ECE57
:1039800013F5F77F318093DAF501630B0510930788
:10399000F07F630BF514135AD9010E0433648A00C7
:1039A000370A8000336A4401131B3900930415C0A1
:1039B0000144814B13D846011399C6001378F87F50
:1039C000B2881359C90093D9F601630E080893070A
:1039D000F07F6300F8041357D6010E0933692701FD
:1039E000130818C0B70780003367F9009318360032
:1039F000B38404418145BD4733C83A0163E4871A63
:103A000097470000938787E00A043E9410403E9653
:103A100002863367C900938414806312071013640D
:103A2000240081488945C1BF1306F07F81470147C3
:103A3000B207F25062545206B1837E08D18FB3E7C9
:103A40000701D2544259B259225A925A025BF24BA0
:103A50003A85BE852161828001481306F07FB70751
:103A600008000147F1B73367C9004DC76308093043
:103A70004A8532C4EF20A0222246130755FFF5479E
:103A8000930685FF998F3319D900B357F60033E7B2
:103A90002701B318D60026959304353F8145A1BF71
:103AA000336A240163030A0636C632C46306042A55
:103AB0002285EF20C01E2246B246AA84130755FF76
:103AC000754A138B84FF330AEA4033146401335A76
:103AD0004901336A8A00331B69011305D0C0B3045E
:103AE00095400144814BF9B5336A240163180A00FB
:103AF0002144014B9304F07F894B6DBD228A4A8B90
:103B000031449304F07F8D4B75B51144014B8144D2
:103B1000854B4DB51364140081488545E9BD136498
:103B200034004A878D45C1BD630A052E8547898FBC
:103B30009306800363DDF632014681470147CDBD20
:103B4000CE868947638DF53A8D47E387F5F0854743
:103B50003688E383F5FE1385F43FE357A0FC93F723
:103B600078006396072893D638009317770063D8B8
:103B70000700B70700FFFD177D8F138504409307EB
:103B8000E07FE3C3A7EA1316D70193179700B18329
:103B90003367D6001376F57F61BDD6865287DA8803
:103BA000DE8545B763614723630DEA20DA86FD149D
:103BB0005284014B9317870013D388013363F300BA
:103BC000935E0301B357D403131F0301135F0F0167
:103BD00093D50601139E88003374D4033307FF0284
:103BE0004204C18D63FBE5009A951386F7FF63EEEF
:103BF000652663FCE526F9179A95998D33D7D50389
:103C0000C206C182B3F5D5033306EF02C205D58DD6
:103C100063FBC5009A959306F7FF63E6652463F49A
:103C2000C52479179A95C20741645D8F9307F4FF05
:103C30003375F70093580701935F0E01B377FE00C9
:103C4000B302F502B386C540B383F80293D50201EF
:103C50003386AF021E962E963385F8036373760083
:103C60002295C168FD189355060133761601420668
:103C7000B3F81201AA95469663E6B6126382B612AD
:103C80003306CB408D8E333BCB00338B664113859F
:103C9000F43F630C6317B358DB0393550601337B82
:103CA000DB03B3061F03420B33EB6501637BDB00D1
:103CB0001A9B9385F8FF636D6B20637BDB20F918FB
:103CC0001A9B330BDB40B356DB0342064182337B46
:103CD000DB03330FDF02420B33666601637BE601D1
:103CE0001A969385F6FF6367661E6375E61FF916DD
:103CF0001A96C208B3E8D8009395080193D2080138
:103D0000C181B38EF5023306E641B385BF0293D677
:103D10000E01B387F202BE95AE96B38F5F0263F4D5
:103D2000F600C167BE9FC165FD1593D70601ED8EF4
:103D3000C206B3FEBE00BE9FF696637FF6091A96D2
:103D40009387F8FF6369661A6368F619630FF61BB9
:103D5000BE8893E8180011B54A85EF105074130718
:103D60005501F145930405022246B246E3DAE5D453
:103D7000130485FF331A8900014B85B3328532C4A1
:103D8000EF10F07113075501F146AA87224613057B
:103D90000502E3D6E6CEE1173317F6008148E5B910
:103DA000E370CBEE729B3335CB011A95AA961305BF
:103DB000F7FF6378D30263E6B6106382D5102A87D3
:103DC000C1B5E3651BDF93551B009316FA0113542D
:103DD0001A00CD8E7E0BF9BBE31DF6F7E38F06D6F6
:103DE000B9BFE31ED3FCE378CBFD2A8751BD93F71F
:103DF000F8009146E389D7D693B7C8FF9386480069
:103E000093C717008D823E978DB381468547E34C5B
:103E1000A0FEFD58E31C05D0930410C08547138510
:103E2000E441B316A70033D6F8003395A800D18E2D
:103E30003335A000C98E13F676003357F70001CE54
:103E400093F7F60011466388C70093874600B3B620
:103E5000D7003697BE869317870063D807040546B8
:103E600081470147F1B636877DBBB28779B3FD46FE
:103E7000E3D7F6FA0556098E930600023356C700BB
:103E80006388D7009387E443B317F700B3E8F800DB
:103E9000B3361001D18E13F67600814701CE93F729
:103EA000F60011460147E392C7FA931797001316DD
:103EB000D701B18313D73600518F014695BEE37009
:103EC000CBF0729B3335CB011A957917AA964DBB6F
:103ED000AE88C5BBAE8631BD93171E0033BEC70189
:103EE00072931A96F9183E8EE315F6E7E307DEC6DD
:103EF00093E818009DB1BE88E30AF6FF99BD3688A5
:103F00001306F07F8147014725B6E367DEFCBE88D4
:103F1000E310DEFE99B113D74501B7071000FD1776
:103F200013D846011377F77F9308F07F33F3B70078
:103F30002A8EF58FFD81B28E1378F87FFD8263089B
:103F40001703630018030DEBB368A30063140800A4
:103F50005D8E29CA638508046388D502054595ED01
:103F60008280B3E8C700E38008FE7955828033651C
:103F7000A30065FD630CE802631408005D8E79DE22
:103F8000E39ED5FCE34CE8FC63480701E3E867FCEB
:103F90006303F302637FF30081E57D558280F5DEE4
:103FA000054582800145E39B08FA82805D8E69DACF
:103FB0006DBF01458280E3E3CEFB0145E372DEFB8A
:103FC000E5F1E1BF39714AD813D945014ED652D433
:103FD00056D29399C50006DE22DC26DA5AD05ECE90
:103FE0001379F97F2A8A93D9C90093DAF501630D11
:103FF000090E9307F07F6306F9181354D5018E0953
:10400000B36934013704800033E489009314350028
:10401000130919C08149814B13D74601139AC60071
:104020001377F77FB285135ACA0013DBF601630BCF
:1040300007109307F07F6303F7049357D6010E0A26
:1040400033EA4701130717C0B7078000B367FA00C8
:10405000931536003A99814833C76A01BD463A85BF
:104060001308190063E83617173600001306067E9A
:104070008A09B29983A60900B2968286B367CA00FC
:104080001309F97F6399071293E92900814589484B
:10409000E1B701479307F07F3704080081443204F9
:1040A000D20731807E075D8C598CA285F250625414
:1040B00026854259D254B259225A925A025BF24B87
:1040C000216182805A853E84AE84C68B8947638D88
:1040D000FB0E8D47E38FFBFA85472A87639EFB38EB
:1040E00081470144814465BF33E4A90061C036C6FD
:1040F00032C4638C092A4E85EF10703A2246B246CC
:10410000AA87130755FF7544938487FF198CB399C9
:10411000990033548A0033643401B3149A0013D7DE
:1041200046011309D0C0139AC6001377F77F3309ED
:10413000F9408149814BB285135ACA0013DBF6015D
:10414000E31907EEB367CA00B1C7630F0A225285AD
:1041500032C4EF10D03422462A87930655FFF54724
:10416000930587FF958F331ABA00B357F600B3E76C
:104170004701B315B6003309E9401309D9C0814896
:10418000E1BD33E4A90001ECA14981441309F07FAA
:10419000894B59B593E919008145854875BD4E8411
:1041A000AA84B1491309F07F8D4BBDB59149814473
:1041B0000149854B95B593E93900D2878D4869BD92
:1041C00089475685E397FBF02A879307F07F0144E0
:1041D0008144F1B5C16E1386FEFF93D6040113DE50
:1041E0000501F18CF18D338695023383B602935825
:1041F000060133059E021A95AA98B382C60363F39B
:104200006800F692C16F1383FFFF33F5670093D305
:104210000701B3F76800C207337366003E933306A5
:10422000950293D80801B387A602135F0601B384F1
:104230009302BE94FA94B38E760263F3F400FE9E6A
:10424000416A9307FAFF935F0401B376F400B3F970
:10425000F4007D8EC1803384D502C209338FD4012E
:10426000B299CE98B307DE02935E0401B385BF0214
:10427000AE97BE9E330EFE0363F3BE00529EC1672F
:104280009385F7FF33F6BE006D8C4206229693DECF
:104290000E01B305D502769E3385AF0213D4050116
:1042A000B386D302AA96A296B38FF30363F3A60054
:1042B000BE9F41657D15B3F7A600C2076D8DAA9715
:1042C000B3855800B3B93501FA97B29533843701F5
:1042D00033B6C500B30EC4013385CE003334340188
:1042E000B3B7E701C18F33BECE0113D40601333615
:1042F000C5003E943366CE009394950032947E942C
:10430000B3E46400260493567501B3349000DD8154
:1043100093179500CD8C558CDD8C9317740063DB5F
:10432000070093D7140085889316F401DD8CD58C93
:10433000058042899307F93F6359F00893F67400AA
:1043400081CE93F6F40011466388C600938644003C
:10435000B3B496002694B6849316740063D806000E
:10436000B70700FFFD177D8C930709409306E07F98
:1043700063CFF60E93D634009314D4012604D58C63
:10438000318093F7F77F21BB328532C4EF103011B3
:1043900093065501F147130705022246E3D1D7DC06
:1043A0006115B317A6008145F9B3EF10500F13073D
:1043B0005501F145930705022246B246E3D5E5D4FF
:1043C00061153314AA00814499BB85469D8EB1E7DF
:1043D0001309E941B3972401B3D4D400331924015C
:1043E000B337F000B3649900DD8C93F77400B356D3
:1043F000D40081CF93F7F40011466388C7009387F8
:104400004400B3B49700A696BE849397860063D801
:10441000070485470144814459B113068003E341F1
:10442000D6CC7D46E356D6FA0556B307F64093053B
:1044300000023356F4006387B6001309E943B3174B
:104440002401DD8CB3349000D18C93F674000144C8
:1044500099CA93F7F40011468146E392C7FA139480
:1044600096003180F6068D80D58C81470DB9930773
:10447000F07F0144814425B142896DBD37071000AA
:104480007D1701113373B70093D84601758F935E82
:10449000D60122CC26CA0E0393D445019357D501E9
:1044A0000E0706CE4AC84EC693F8F87F130EF07F6B
:1044B00033E7EE0093F4F47F13D4F50133E36700A0
:1044C000131F3500FD82931E36006380C81993C602
:1044D0001600B38514416305D4126351B018638B81
:1044E000081AB70780005D8F6381C4599307800362
:1044F00063C4B734FD4763C5B748930700028D8F87
:10450000B3D9BE003318F700B39EFE0033683801FC
:104510003357B700B339D001336838013303E34070
:10452000B3090F41B3373F013306F34093178600B9
:1045300063D30724370980007D1933792601630F7F
:10454000092C4A85EF10A075130785FF9307000219
:10455000998FB3D7F9003316E900D18FB399E900E9
:104560006344972A058F13061700FD4663C5C63AB4
:1045700013070002118FB3D6C9003398E9003397AF
:10458000E700558F33380001B369070133D6C70000
:10459000814493F7790081CF93F6F90091476388BE
:1045A000F6009386490033B836014296B6899317D0
:1045B000860063D6071C138714009307F07F0588D5
:1045C0006306F720B70780FFFD17F18F1398D70117
:1045D00093D93900A60733683801B1831377F77F81
:1045E0009396C7005207B1827E04D98EC18EF240E5
:1045F0006244D2444249B2494285B685056182800F
:104600006356B00A638A0812B70780005D8F63871C
:10461000C42D9307800363C7B718FD4763D2B73C27
:10462000138805FE93070002B3590701638AF5005A
:1046300093070004B385B7403317B700B3EEEE001D
:104640003338D0013368380195A2B367D701938519
:10465000148099E393C61600630AD404D1E19387CA
:10466000140093F7E77F6399071EB367E30133688C
:10467000D701639204166382073C6316084213183D
:1046800035009316D3011358380033E806019357C9
:10469000330019A2B367D7016385071A9387F5FF23
:1046A000638B073A638CC523BE8589B56399051C66
:1046B0009386140093F7E67FC1EFB367E30163903D
:1046C0000436638D0744B367D701639407460E052C
:1046D0001318D3010D813368A800935733006DA8D8
:1046E000B385984063970420B367E301638D073077
:1046F0009387F5FF638907401305F07F6383A52047
:10470000BE859307800363C2B72AFD4763C8B73CE1
:10471000930700028D8F3318F3003356BF00B31791
:10472000FF003368C800B339F0003353B300336877
:10473000380133076740B5ACB367D701638307100F
:104740009387F5FF638F071E6380C52FBE85D1B5A4
:104750009307F07F638BF606FA9E33B6EE01B3073C
:10476000E300B2971398F70193DE1E00B369D801F6
:1047700013D61700B68493F77900E39F07E09317E9
:10478000D60113D839003368F800A6859357360050
:104790001307F07F6380E506B207B18313F7F57F57
:1047A00005883DBD3367D7013338E000B309E80120
:1047B000B3B7E9013386670093178600E3DD07FA94
:1047C00085049307F07F639CF41805881307F07F36
:1047D0008147014831B5639107106301083C131804
:1047E00036009317D701135838003368F800368421
:1047F00093573700B367F800E9DB01441307F07FF4
:10480000B70708000148E9BB370680FF7D167D8E9B
:1048100093F77900998CE39107D895B74E85EF10FF
:10482000004813078501FD47E3D2E7D2130685FF51
:10483000B397C90081492DB33368D70133380001DC
:10484000C5B1131835009317D301135838003368D6
:10485000F800935733002DBFB309DF413309E3401C
:1048600033363F013309C9409317890063CA0720D3
:1048700033E82901E31508CC8147014431BFB385F2
:10488000984063810414B70680009307F07F336378
:10489000D3006381F8209307800363CCB722FD47E0
:1048A00063C9B72C930700028D8F3318F300B356FA
:1048B000BF00B317FF003368D800B339F00033539B
:1048C000B300336838011A97B309D801B3B7D901D7
:1048D0003386E700C684CDB5E31108F2131835001E
:1048E0009317D301135838003368F80093573300F7
:1048F00011B7370580009307F07F3363A300E3927D
:10490000F8E00E061318D7010D823368C8009357DC
:1049100037003684C5B505179306000233D7E70084
:10492000630AD600930600043386C6403396C70058
:10493000B3E9C90033383001B369E8000146814466
:104940001DBDB309DF01B307E30033BFE9013386BF
:10495000E701931786008544E3DF07E08944B70742
:1049600080FFFD17F18F13D7190013F81900336872
:1049700007019399F701B3E9090113D6170011B99B
:10498000138805FE93070002B3590701638AF500F7
:1049900093070004B385B7403317B700B3EEEE00BA
:1049A0003338D00133683801A5BE3363E3013338AF
:1049B0006000B3890E41B3B73E013306F740C684A9
:1049C0003684ADB6B367E301638707189387F5FFB5
:1049D000638C071C9306F07F638ED50ABE8565BD88
:1049E000930700028D8FB3D9BE003318F700B39E32
:1049F000FE00336838013357B700B339D00133684C
:104A000038013A9365B3131836009317D70113583A
:104A1000380033E8070136849357370095BBBDCB88
:104A20003367D701E31B07DC0E051318D3010D8193
:104A30003368A8009357330075BBE30F08E21318DF
:104A400036009317D701135838003368F8003684BE
:104A50009357370091B3B309DF41B307E340333FC6
:104A60003F013386E7418544D1B4131835009316CE
:104A7000D3011358380033E80601935733009DBB28
:104A8000B389EE413306674033B93E01330926410D
:104A9000368475B40E061318D7010D823368C8002A
:104AA0009357370081BBB309DF41B307E340333687
:104AB0003F013386C7409317860063D7070AB3893F
:104AC000EE41B3076740B3BE3E013386D74136841B
:104AD000C9B43363E30133386000FDB3138805FEC6
:104AE00093070002B3590301638AF500930700049A
:104AF000B385B7403313B300336F6F003338E00131
:104B0000336838017DB5B389EE41B3076740B3BE62
:104B10003E013386D7413684854409BC13183600DC
:104B20009317D701135838003368F80093573700AC
:104B3000A5B1B309DF01B307E30033BFE901338651
:104B4000E70193178600E3D807C2B70780FFFD1778
:104B50007D8E85440DB10E061318D7010D82336882
:104B6000C800935737002DB133E8C900E30608D0D9
:104B700019B1138805FE93070002B3590301638A34
:104B8000F50093070004B385B7403313B300336FC8
:104B90006F003338E001336838013DB30144130737
:104BA000F07FB70708002DBCB309DF01B307E300AE
:104BB000B3BED9013386D70169BB411137078000E5
:104BC0007D1713D8750126C2935475013373A7005E
:104BD00093F4F40FB376B7004AC01378F80F135963
:104BE000F50106C622C4FD819A8726854A86131ED2
:104BF0003300939E3600B3880441630AB90E6350B4
:104C0000100D630408149307F00F638BF414B707B7
:104C10000004B3EEFE00ED4763C1172993070002BD
:104C2000B3871741B397FE00B3D81E01B337F00026
:104C3000B3E7F800B307FE4013975700635E071809
:104C4000370400047D147D8C2285EF1040056D151E
:104C5000B317A4006348951A058D130415001307B4
:104C60000002018F3397E7003337E000B3D78700A6
:104C7000D98F814413F7770019C713F7F7009146CE
:104C80006303D700910713975700635B07148504EC
:104C90001307F00F4A866383E4169A07A58313F57A
:104CA000F40FB2402244A6079314750113D5970060
:104CB000458D7E0692440249518D4101828063995F
:104CC000080A138714001377E70F6317071463901C
:104CD0000422630D0E1EE3860EFCB307DE4113971C
:104CE000570063500722B387CE412E8961B7635CBA
:104CF000100B630E08089307F00F6383F406B707E1
:104D00000004B3EEFE00ED4763C9171F93070002CE
:104D1000B3871741B397FE00B3D81E01B337F00035
:104D2000B3E7F800F297139757006357070A850413
:104D30001307F00F6384E40CB706007E13D7170047
:104D4000FD16858B758FD98F35B7638D0E08FD18CD
:104D5000B307DE41E38208EE9307F00FE39DF4EA28
:104D6000630D030801461305F00FB707400015BF98
:104D700033079840EDE863020E147D1763080718A7
:104D80009307F00F6319F80E2E893683D1BF638B1A
:104D90000E04FD18B307DE01E38708F89307F00F50
:104DA000E393F4F675BF63950808850413F7E40FE1
:104DB0006313071263170510630F0E14E3830EEEDF
:104DC000B307DE0113975700814463570700370785
:104DD00000FC7D17F98F854413F77700E31F07E880
:104DE00013D337009307F00FE38CF4F69317930077
:104DF000A58313F5F40F4A866DB54A861305F00FA7
:104E0000814745B5370700FC7D17F98F13F7770009
:104E1000898CE31407E6E9B73304DE4193175400A5
:104E200063C3070CE31204E201460145814795BDC7
:104E300033079840ADC49307F00FE308F8F4B707C1
:104E40000004336EFE00ED4763CCE70C93070002CD
:104E5000998FB317FE003357EE00B337F000D98FA8
:104E6000F697C284C9B59307F00FE30FF8F0B707C0
:104E70000004336EFE00ED4763C3E70893060002AB
:104E8000998EB316DE00B357EE003337D000D98FBA
:104E9000B387FE40C2842E8945B3854761BB630E4C
:104EA0000E067D17B307DE01C284E30E07E6930703
:104EB000F00FE31AF8F8368365B53683C2842E897D
:104EC00015B7E3040EECE38D0EE869BD638D0E02A9
:104ED0002E86B687F9B39307F00FE381F4F2B30798
:104EE000DE018583D5BD3384CE412E89B1BBE31C61
:104EF0000EFCE3890EE62E8949BD854725B5854719
:104F000041BFE39B07EC0146814761BBB387CE41BC
:104F1000C2842E8915B3B68769B33683C284D9B5E6
:104F200085473DBF3971935775014AD856D25ECE39
:104F3000931A95001359F50106DE22DC26DA4ED6C7
:104F400052D45AD093F7F70F93DA9A00CA8B638240
:104F500007121307F00F6384E7128E0A3707000465
:104F6000B3EAEA00138A17F80144014B93D775019D
:104F70009394950093F7F70FA58093D9F501FDC79A
:104F80001307F00F6387E7028E04938717F837073C
:104F90000004D98C330AFA408146558C173700003B
:104FA0001307C78E0A043A941C4033493901BA9753
:104FB0008287130A1AF0F9E88946558C17370000E2
:104FC0001307C7900A043A941C4033493901BA9731
:104FD000828701491307F00FB70740001395970028
:104FE000F25062549317770125817E095D8D3365F8
:104FF0002501D2544259B259225A925A025BF24BBD
:10500000216182801307F00F8147C9BFA68ACE8B2A
:10501000368B8947630BFB1A8D47E30CFBFA8547F8
:10502000630AFB0A1307FA0713F91B006357E01220
:1050300093F77A0099C793F7FA0091466383D700F4
:10504000910A93974A0063D90700B70700F8FD1744
:10505000B3FAFA0013070A089307E00FE3C4E7FA6C
:1050600093976A00A5831377F70F8DBFB9E4854640
:10507000A9B763940A021144014A054BC5BD63995F
:105080000A002144130AF00F094BCDB58D4631B704
:105090003144130AF00F0D4BD1BD56852EC6EF00DB
:1050A00010409307B5FFB39AFA009307A0F8338A2C
:1050B000A7400144014BB24555BD2685EF00303E67
:1050C0001307B5FFB307AA00B394E400138A670778
:1050D0008146E1B513F91B000147814701B74166DD
:1050E000139554007D1693570501698E63FA9A0A49
:1050F000B3D5FA027D1AD68601473388C502B3F6C6
:10510000F602C206558F637B07012A979386F5FF47
:105110006368A70A6376070BF9152A9733070741D7
:10512000B356F7023377F702B38AC6029317070123
:1051300063FB5701AA971387F6FF63E1A70863FF94
:105140005707F916AA97C205B38A5741D58DB33AC6
:105150005001B3EA5501CA8BF1B58546998E11C746
:105160006D4601478147E34BD6E6130AEA09339AB5
:105170004A01B3D7DA00B33A4001B3E7570113F756
:10518000770019C713F7F70091466303D70091071B
:1051900013975700634807029A07A58301473DBD4F
:1051A00093D61A00B3D5F6021397FA0141833388D8
:1051B000C502B1B7CE8B368B814AA1BDBA8661B725
:1051C000B685A9BF0547814711BD13F91B00130719
:1051D000F00F814721B593567501B7078000FD1781
:1051E00013D6750193F6F60F1308F00FB3F8A70066
:1051F0001357F501ED8F1376F60FFD8163840603D7
:105200001305F00F6304A60205456383C600828080
:10521000E39FF8FE0145E30CB7FE0545EDFA333593
:10522000100182800545E38D08FC82800545E9DF99
:10523000828093567501B7078000FD1713D675015C
:1052400093F6F60F1308F00FB3F8A7001357F50104
:10525000ED8F1376F60FFD8163810603630C060163
:105260008DE211E2B1C3638E08026305B704054500
:105270001DE78280F5D779558280E39E08FE630999
:10528000D60211E2EDD7E314B7FEE342D6FE63C7C0
:10529000C600E3EE17FD0145E3FDF8FC01E77D558F
:1052A0008280F5DD054582800145E39208FC82801D
:1052B000F9DBD1B78146E1BF93567501B70780008E
:1052C000FD1713D6750193F6F60F1308F00FB3F818
:1052D000A7001357F501ED8F1376F60FFD81638755
:1052E00006036309060185EA11EA89EB0145639B20
:1052F000080082800945F5FFE5DA31A8638C0802D1
:105300006300B704054575D77D55828009456398CC
:1053100008026304D60211E2F5D7E315B7FEE343B2
:10532000D6FE63C7C600E3EF17FD0145E3F3F8FCC3
:1053300019E3D9BFF1D905458280E5D38280828007
:105340008146C5B7797122D4135475014ECE52CC23
:105350009319950006D626D24AD056CA5AC8137455
:10536000F40F93D99900135AF50169C49307F00F0C
:105370006308F40E9397390037070004B3E9E70098
:10538000130414F88144014B13D77501939A9500C7
:105390001377F70F93DA9A0013D9F50145CF9307E6
:1053A000F00F630CF7028E0A130717F8B707000413
:1053B000B3EAFA003A94014633452A01BD47AA866A
:1053C0009305140063E29710172700001307075492
:1053D0008A04BA949C40BA9782871304F40F6398A6
:1053E0000A0C93E424000946C1BF01451307F00FDE
:1053F000B7074000B2502254A6075E07A5837E057A
:10540000D98F92540259F249624AD24A424B5D8D79
:1054100045618280CA86D689328B89476301FB0A3F
:105420008D47E304FBFC854736856312FB1A014771
:105430008147C9B7639E090413D77501939A9500F4
:105440001377F70F91440144054B93DA9A0013D96F
:10545000F50131F7639D0A0093E414000546A9BFE6
:1054600063930902A1441304F00F094B31BF568521
:10547000EF00F0029307B5FF098CB39AFA0013040A
:10548000A4F8014615BFB1441304F00F0D4BEDBD58
:105490004E852EC6EF00B0009307B5FF1304A0F8A9
:1054A000B399F900098C8144014BB245F1BD93E4F5
:1054B00034000D4611B78947D286E313FBF63685D3
:1054C0001307F00F81473DB741639306F3FF13D6EF
:1054D000090193D80A01B3F7D900B3FADA00338887
:1054E0005703B389F80213570801B30A5603D69934
:1054F0004E9733061603637357011A96C167FD175B
:10550000B376F7003378F800C206C2969399660026
:1055100093570701B3393001E982B2979A07B3E68E
:10552000D900B3E9D7009397490063D9070013D78F
:10553000190093F71900B369F7002E841307F407D5
:105540006350E00493F7790099C793F7F900914607
:105550006383D70091099397490063D90700B70780
:1055600000F8FD17B3F9F900130704089307E00FDB
:1055700063CBE70493976900A5831377F70F9DBD6D
:105580008547B386E74011C76D4601478147E3432E
:10559000D6E61307E4093397E9003337E000B3D7C1
:1055A000D900D98F13F7770019C713F7F700914681
:1055B0006303D700910713975700634C07009A07BE
:1055C000A583014705BD1307F00F814725B52E843C
:1055D000B5B70547814739BD3707800041117D17B1
:1055E0009356750113D87501B377A70093F6F60F9C
:1055F000935EF5013376B70026C24AC01378F80FE0
:1056000006C622C41303F00F3E8E3689F684139F1C
:105610003700FD8113153600B38806416302681018
:1056200093C51500638CBE106354100D63100810F1
:105630006304051EFD18B307AF4063860802930795
:10564000F00F6388F616ED4763C7172913070002AA
:10565000330717413317E500B35715013337E0001F
:10566000D98FB307FF40139757006351071A3704C8
:1056700000047D147D8C22851D256D15B317A400B3
:10568000634E251B33052541130415001307000243
:10569000018F3397E7003337E000B3D78700D98F06
:1056A000014913F7770019C713F7F7009146630311
:1056B000D700910713975700635E071493061900EC
:1056C0001307F00F93FE14006386E6169A07A5836E
:1056D00093F6F60FA607B240224413D59700DE06D4
:1056E0009397FE01558D924402495D8D4101828060
:1056F0006392080A138716001377E70F631B0714DA
:105700006394062263020F2071D5B307AF4013974D
:10571000570063550722B307E5410149AE8451B7ED
:10572000E30005F0638ABE0AE35410FD9307F00F0F
:105730006381F608B70700045D8D31B7635E100919
:10574000630108089307F00F6385F606B7070004A6
:105750005D8DED4763C0171F130700023307174124
:105760003317E500B35715013337E000D98FFA97A7
:1057700013975700635C070805091307F00F630BC5
:10578000E90AB706007E13D71700FD16858B758FC3
:10579000D98F01BF3307D84063950610630D0F14EE
:1057A0007D176303071A9307F00F6314F810AE8494
:1057B000328E630F0E06814E9306F00FB70740003E
:1057C00011BF39C9FD18B307AF00E38308FA930787
:1057D000F00FE390F6F8F1BF6399080813891600FB
:1057E0001377E90F63160712639B061063030F1606
:1057F000E30205EEB307AF00139757000149635763
:105800000700370700FC7D17F98F054913F777006C
:10581000E31C07E813DE37009307F00FE30BF9F8FA
:1058200093179E00A5839376F90F93FE14005DB540
:1058300093FE14009306F00F814769BD370700FC03
:105840007D17F98F13F777003309A940E31E07E4AA
:10585000D1B73304AF409317540063C3070CE31C64
:1058600004E0814E81468147B5B53307D840B5C6BF
:105870009307F00FE30EF8F2B7070004336FFF0051
:10588000ED4763CDE70C93070002998FB317FF0034
:105890003357EF00B337F0005D8FB307A70042899D
:1058A000C1BD9307F00FE304F8F0B7070004336FAE
:1058B000FF00ED4763C2E70893070002998FB31713
:1058C000FF003357EF00B337F000D98FB307F5402F
:1058D0004289AE8449BB854769B3630E0F067D17C5
:1058E000B307AF004289E30507E89307F00FE31918
:1058F000F8F8328E7DBD328E4289AE8431BFE30925
:105900000FEAE30805EA45BD0DCDAE8EB287D9B3E7
:105910009307F00FE300F9F2B307AF008583FDB5FD
:105920003304E541AE8481BBE31D0FFCE30505E8CC
:10593000AE84BDBD854725BD854749BF0149E39775
:1059400007EC814E814779B3B307E5414289AE84C4
:1059500019BBB28741B3328E42897DBD054735BF41
:1059600037068000135775019307F6FF1377F70F7B
:105970009305E007B3F6A7009357F50163FCE50034
:105980009305D00963FAE500370500801345F5FF5C
:105990003E9582800145828093055009D18E63CD6A
:1059A000E500130660093307E64033D7E600330508
:1059B000E040F5F33A8582801307A7F63397E600B7
:1059C000FDB7411106C622C426C20DCD9357F5413D
:1059D00033C4A7001D8CAA842285D1249307E00933
:1059E0003387A74093076009FD8063CCE702A14697
:1059F0009377F70F63D5A60061153314A40026042E
:105A0000258021A081448147014426041355940038
:105A1000B2402244DE07FE045D8D458D9244410173
:105A200082809307900963DDE7009307B5019546EF
:105A3000B317F400898E3354D400B337F0005D8C73
:105A4000954763D6A7009307B5FF3314F400B70654
:105A500000FCFD16937774003376D40085C39377EA
:105A6000F4009145638CB70011069317560063D775
:105A700007009307F009758E3387A740131466005B
:105A800025809377F70F51B7135775011377F70FE9
:105A900041119307170022C426C21314950006C6AD
:105AA00093F7E70F25809354F50185C7935734008A
:105AB000130707387604B2075207B1831395F40130
:105AC000D98FC98FB240228522449244BE854101BC
:105AD000828005EB39C42285D922A94763C6A70471
