:100000006F100079130000001300000013000000BF
:100010001300000013000000130000001300000094
:100020001300000013000000130000001300000084
:08003000130000007300100032
:100038000000000000000000A4150000A815000042
:1000480000000000D61600000000000000000000BC
:10005800D8160000DA1600000000000000000000BA
:10006800DC16000000000000DE16000000000000A2
:10007800E0160000E2160000E4160000E616000094
:10008800E8160000EA160000EC160000EE16000064
:10009800F0160000F2160000F4160000F616000034
:1000A800F8160000FA160000FC160000FE16000004
:1000B80000170000021700000417000006170000D0
:1000C800081700000A1700000C1700000E170000A0
:1000D8001017000012170000141700001617000070
:1000E800181700001A1700001C1700001E17000040
:1000F8002017000022170000241700002617000010
:10010800281700002A1700002C1700002E170000DF
:1001180030170000321700003417000036170000AF
:10012800381700003A1700003C1700003E1700007F
:10013800401700004217000044170000461700004F
:10014800481700004A1700004C1700004E1700001F
:1001580050170000521700005417000056170000EF
:10016800581700005A1700005C1700005E170000BF
:10017800601700006217000064170000661700008F
:10018800681700006A1700006C1700006E1700005F
:10019800701700007217000074170000761700002F
:1001A800781700007A1700007C1700007E170000FF
:1001B80080170000821700008417000086170000CF
:1001C800881700008A1700008C1700008E1700009F
:1001D8000000000000000000000000000000000017
:1001E8000000000000000000000000000000000007
:0801F8000000000000000000FF
:10020000397101436EC619A0397141536AC866CA73
:1002100062CC5ECE19A0397101535AD056D252D455
:100220004ED64AD826DA22DC06DE330161408282CD
:1002300041114AC026C222C406C68282B24D410183
:10024000024D924C224CB24B4101024B924A224A3F
:10025000B2494101024992442244B24041018280A4
:100260003D432A876373C3029377F700BDEFADE583
:10027000937606FF3D8ABA960CC34CC30CC74CC795
:100280004107E36BD7FE11E28280B306C3408A06C2
:100290009702000096966780A6002307B700A30682
:1002A000B7002306B700A305B7002305B700A304D2
:1002B000B7002304B700A303B7002303B700A302CA
:1002C000B7002302B700A301B7002301B700A300C2
:1002D000B7002300B700828093F5F50F9396850051
:1002E000D58D93960501D58D61B79396270097021A
:1002F000000096968682E78086FA9680C1171D8F49
:100300003E96E374C3F8A5B7EFF29FF24D71231444
:1003100001002315010023160100AA842E8923174A
:100320000100EF20A031420583D7418341856886D3
:100330001384418399C31C48829783C7D18193F763
:10034000F70F638A070E1E20638A07165C44374640
:1003500000001306C6B48145014582972685EF202B
:10036000E02D3E20782042054185B3C7E70268862C
:10037000C207C1877C8785048387F4FFEDFF2315BF
:10038000010005479306F0021306C0053C85637E15
:10039000F7003C86C207C18763C0070413861400B8
:1003A000B74500009385C5B589A03C86C207C187C3
:1003B000E3C107FEFD14838704006384D7006397BD
:1003C000C7003C858507C207C1837C853C86FD1735
:1003D000C207C1877C865DBF3C852686C207C18374
:1003E000E1F3B7450000938585B68808EF20C0206B
:1003F000231401008808EF20602424843C87C20471
:10040000C207C1873355F502C180050563E7A40221
:10041000B74500004A86938585B78808EF20C01D40
:100420002C847C3090088505B385F5025C44014539
:10043000C205C1818297716131BD231501003885E4
:100440003C87C207C1876348F7023C85980A2C8421
:10045000BA97238007EC7C3085051008B385F50238
:100460005C440145C205C18182973C848507C2076F
:10047000C1837C8441B78808EF20401C38853484D0
:100480003C87C207C187B387D702BA97E36FF5FAF3
:100490003C85308438878C0AAE9742074187330702
:1004A000C7023485AE96BA9783C707F02380F6EC6F
:1004B0003C858507C207C1837C8551B713060008B8
:1004C00081458808713BB7450000CA86268693851A
:1004D00045B88808EF2040121C4488088297A1BFC5
:1004E000EFF27FD391642E8A32890144938484E5AC
:1004F0006355240383A98400930500044E85EF10FF
:1005000070497DD9B3078A00838507004E850504AD
:10051000C205C181EF109047E1BF4A853DB331ED7F
:10052000B707002083C7070693F7F70FB9C793876C
:10053000C181982311C301A0EFF2FFCD05474111FE
:10054000B2842E8498A31309F00F4128C169A685AF
:1005500022855D3B02C402C602C4A247E369F9FEDC
:1005600002C6B24763E63701A24785073EC4F5B726
:100570000100B24785073EC6EDB782801DE103C783
:10058000D1811377F70F11CFEFF29FCAB2873745AA
:1005900000003686130545B2AE86BE85EF20E00129
:1005A00055B98280C1771CC1FD575CC12324050069
:1005B000232605002328050082800C419387418370
:1005C00018498CC3104554454C4198CB90C7CCC3B7
:1005D000D4C70547A38EE180828093870182984328
:1005E000050798C38280EFF21FC341111307500221
:1005F0009306300213064006930580061385818416
:10060000EF00103D83A781818964938404F4B3D7FC
:100610009702130540068145A9491D4A3385A70263
:10062000EF00E07C9307F00F01469305B0061385B9
:1006300081847C87EF00F03C1D46E545138581846D
:10064000EF00303C3C87C207C1879DC73C87E5452A
:1006500013858184FD17C207C1877C87EF00903D19
:10066000AA8A03A581818145335595023305350357
:10067000EF00E077E3984AFD3C87C207C18763D06B
:10068000070237460000B745000001459306F00415
:100690001306C6DC938585DED535054589A8014658
:1006A0009305B00613858184EF00B0351146E5450A
:1006B00013858184EF00F0346146ED451385818414
:1006C000EF0030340146F14513858184EF0070332B
:1006D00001469305A00613858184EF0090321385AF
:1006E0008184094693057003EF00B0310145410153
:1006F000A9BEEFF2FFB3916703A4C7E2C144130997
:10070000000804C844C8AA85232A24010545EF002F
:10071000506504C82328240144C82DBEEFF2BFAFA2
:10072000138BA180AA8903450B00374A0000AE84D1
:10073000328933B5A9001306000593054AE03684D3
:10074000938AB180E93B03C50A001306100593059F
:100750004AE033B5A400E13303450B00130620053E
:1007600093054AE03335A9005D3B03C50A00130633
:10077000300593054AE03335A400553303A7418083
:10078000854793F9F90F1379F90F93F4F40F137464
:10079000F40F1305A00263E6E706A13F8145054576
:1007A000EF00305C9385290093F5F50F0545EF00C8
:1007B000505B81450545EF00D05A9305290093F51C
:1007C000F50F0545EF00F0591305B0021D378145BF
:1007D0000545EF0010599385140093F5F50F054575
:1007E000EF00305881450545EF00B05793051400E0
:1007F00093F5F50F0545EF00D0561305C002D53D22
:10080000A9B4C53D81450545EF00B0559385190054
:1008100093F5F50F0545EF00D05481450545EF00F0
:1008200050549305190093F5F50F0545EF007053EB
:100830001305B0027D3D81450545EF00905293853B
:10084000240093F5F50F0545EF00B05181450545AE
:10085000EF0030519305240061BFEFF27F9D03C686
:10086000A18083C6B180814501453304D602FD16BF
:100870007D16C2064206C18241824D3511E0D9BAC9
:1008800083D5418205457D14EF00304FC5BFEFF29F
:100890003F9A03C6A18083C6B180AA8481453304F0
:1008A000D602FD167D16C2064206C182418201456E
:1008B000B53511E045B2A6850545EF00104C7D1415
:1008C000CDBF23A2A18085461387A1809387B180E5
:1008D00063E9A600930600F814A3130700FA98A38F
:1008E0008280930600FA14A3130700F8CDBF239467
:1008F000A1802392B1828280EFF21F912A8B03C5DF
:10090000A180B7440000AE893284938544E0130689
:1009100080123335AB00213103C5B180130690122C
:10092000938544E033B5A900DD3E99473304F402D2
:10093000138A79009167938747BA420A0149135A8B
:100940000A01994B3E9433062B0142064182D2861E
:10095000CE853285E133834A04F4A14493F71A002B
:1009600095C383D58180FD14054593F4F40FEF0002
:10097000D04093DA1A00FDF005090504E31579FD6E
:100980006FF01F8C83D54182F9BFEFF2DF88AA8414
:1009900003C5A180374400002E8933B5A400930518
:1009A00044E0B289130690149D3E03C5B1809305BF
:1009B00044E01306A0143335A90095360144B387EB
:1009C00089000386070019E26FF03F881315340091
:1009D000269542050504CA8541814204313F418084
:1009E000F9BFEFF25F83374400000111930544E043
:1009F0001306502A05452536930544E01306602A60
:100A00000545313E03A681811308F00F130720022C
:100A10009307F00F93060002098281450545EF0018
:100A2000D01CC14601468545130570063921C146D3
:100A300001468545130570020921C14601468545D9
:100A400013054006DD2EC146054685451305000603
:100A5000ED269384418088400964130404F495359D
:100A60006800893685477C8683C7A1806800130AA1
:100A700000087C8783C7B180FC808567A107FC8163
:100A8000B71700009387A7983ECCB717000093874D
:100A9000A7853ECE1D36916783A947E283A7818152
:100AA000294523AA4901B3D7870281453385A70287
:100AB0003D2E03A5818123A8490193098007335561
:100AC00085028145330535031D2645451D3103A5A6
:100AD000818181453355850233053503092E130580
:100AE000100B013985450545EF00B0279305C0027D
:100AF0000545EF0010279305D0020545EF0070264D
:100B00001305200BFD3685450545EF00902593051F
:100B1000C0020545EF00F0249305D0020545EF0023
:100B200050241305300BF13685450545EF00702341
:100B30009305C0020545EF00D0229305D00205457C
:100B4000EF00302285450545EF00B0219305C00236
:100B50000545EF0010219305D0020545EF007020F8
:100B60001305400B79369D450545EF00901F130591
:100B7000000C41369305200A0545EF00901E89457B
:100B80000545EF00101E930540080545EF00701D58
:100B90001305100CB93E9305500C0545EF00701C71
:100BA0001305200CB936A9450545EF00901B81457A
:100BB0000545EF00101B1305300C253E9305A008DA
:100BC0000545EF00101A9305A0020545EF007019C6
:100BD0001305400C393E9305A0080545EF00701839
:100BE0009305E00E0545EF00D0171305500C1136A4
:100BF000B9450545EF00F01613056003DD3C9C4048
:100C00000547638EE71C6386071C0947638BE71C57
:100C10000D47638BE71C1305000EE13CBD45054500
:100C2000EF003014E9450545EF00B013BD4505451B
:100C3000EF003013E1450545EF00B0129305F002D7
:100C40000545EF001012930580020545EF00701175
:100C5000930500020545EF00D010930520020545DD
:100C6000EF003010FD450545EF00B00FED4505459F
:100C7000EF00300F930530020545EF00900E93050D
:100C800070030545EF00F00D81450545EF00700D3F
:100C90009D450545EF00F00C89450545EF00700CBA
:100CA000C1450545EF00F00B1305100E9934BD4505
:100CB0000545EF00100BED450545EF00900ABD45D9
:100CC0000545EF00100ADD450545EF009009930545
:100CD00030030545EF00F0089305C0020545EF001D
:100CE0005008930590020545EF00B0079305E00218
:100CF0000545EF001007930500030545EF0070065A
:100D0000930500030545EF00D005930590030545C5
:100D1000EF0030059305F0030545EF009004814591
:100D20000545EF0010049D450545EF0090038D45F6
:100D30000545EF001003C1450545EF00900213057E
:100D4000A002EFF01F9B81450545EF00900189450A
:100D50000545EF00100181450545EF009000930522
:100D600020080545EF00E07F1305B002EFF07F9803
:100D700081450545EF00E07E8D450545EF00607E2D
:100D800081450545EF00E07D930530080545EF00FE
:100D9000407D1305000FEFF0DF9585450545EF0019
:100DA000407C1305600FEFF0DF9481450545EF00AF
:100DB000407B1305A003EFF0DF9395450545EF0059
:100DC000407A13059002EFF0DF92413C05616FF02D
:100DD000CFC79305000C0545EF00A0782DBD8145D8
:100DE000DDBF9305000AC5BF93050006EDB7B7F751
:100DF00000E023A007008146014794C7D8C70547F4
:100E000098C337F600E018465C4663E6F500E39CBD
:100E1000B7FEE37AE5FE8280135735009376C7016B
:100E20001167130707E236971C43984785473395A8
:100E3000A700798D3335A0008280EFF2CFBD41113C
:100E400002C202C402C69307F00F6303F5061354EF
:100E500055001D889374F5003689328AAE8921ECDD
:100E600085451145EF0050368547B3949700C2047D
:100E7000C18064826399F90093170901C183A1833A
:100E800091E38D473EC49167938707E20A043E943D
:100E900000401379F90F4C0022854AC6EF00F01785
:100EA00085476397F9005286A6852285EF00D023F7
:100EB00041016FF08FB985476315F40085452145E1
:100EC00055B789476315F4008545414561BF8D4796
:100ED0006316F40085451305000269B79147E315D1
:100EE000F4F8854513050004B5BF41112AC6B24781
:100EF0001387F7FF3AC6E5FF41018280EFF24FB357
:100F00001C419164938404E213D757000A07269783
:100F100018430544BD8BB317F4001CCB5C412A89F0
:100F2000484513D757000A0726971843BD8BB317B8
:100F3000F4001CCB5D3F832749000325C90013D76C
:100F400057000A0726971843BD8BB317F4005CCBF4
:100F5000693F03270900935757008A07BE949C40B6
:100F60003D8B3314E400C0CB6FF0CFAEEFF24FAC4B
:100F70005C411169130909E213D757000A074A9720
:100F800018438544BD8BB397F4005CCB1C412A8485
:100F9000484513D757000A074A971843BD8BB397A4
:100FA000F4005CCB99371C40484413D757000A071C
:100FB0004A971843BD8BB397F4001CCB3D3758407C
:100FC0004844935757008A073E99832709003D8B71
:100FD000B394E40084CB113F6FF0CFA7EFF2AFA33F
:100FE000916441112A842549938404E285497D193D
:100FF0001379F90F4844631F09041C40054913D7AE
:1010000057000A0726971843BD8BB317F9005CCB2E
:10101000E93D1C40484413D757000A072697184358
:10102000BD8BB317F9001CCBC9354840F5331C40C4
:10103000AA89484413D757000A07BA949840BD8B31
:101040003319F900232A27014D3513B51900410141
:101050006FF0AF9F5C4093968501E18613D75700F0
:101060000A072697BD8B1843B397F90063D006048F
:101070001CCB860593F5F50F2EC6853D1C404844D4
:1010800013D757000A0726971843BD8BB397F9006B
:101090001CCBA13D1C40B24513D757000A07269729
:1010A0001843BD8BB397F9005CCB91B75CCBD1B73C
:1010B000EFF26F961C419164938904E213D75700B5
:1010C0000A074E9718432A840549BD8B4845B31734
:1010D000F9005CCB2E8A113D5840938404E2854A86
:1010E000935757008A07CE979C433D8B3319E900ED
:1010F00023A82701A5490149FD1993F9F90F48448F
:10110000639309081C40854913D757000A0726979F
:101110001843BD8BB397F9005CCBC13B1C404844DE
:1011200013D757000A0726971843BD8BB397F900CA
:101130005CCB653B5C4013D757000A072697BD8BF5
:101140001843B397F90063030A081CCB1C404844BA
:10115000854913D757000A0726971843BD8BB397C5
:10116000F9001CCB59331C40484413D757000A07D9
:10117000BA949840BD8BB399F900232A3701B5334F
:101180004A856FF08F8C95331C404844060913D76D
:1011900057000A0726971843BD8BB397FA005CCB1C
:1011A000A9331C4048441379F90F13D757000A0795
:1011B00026971843BD8BB397FA001CCB3D334840AC
:1011C000EFF09FC515D9136919003DB75CCBBDBFC2
:1011D000EFF20F86AA87411194C3D8C38CA7D0C75A
:1011E00036850546C14685453AC6EFF01FC53247EC
:1011F000D146054685453A85EFF03FC441016FF081
:101200006F85EFF2EF8241112A8432C6AE84FD3140
:101210000C242285860593F5E50FC933A685228522
:10122000753B32462285B285553B2285813341018B
:101230006FF04F82EFE2DFFF2A84AE84EFF01FCC25
:101240000C242285860593F5E50F493BA68522856A
:1012500071332285EFF09FCA0C242285860593E521
:10126000150093F5F50F9D3B854522859135AA84A0
:101270002285ED3926856FE0FFFDEFE27FFBAE842E
:101280003284368929E59306803105468545154522
:10129000EFF0BFBA8947639AF40893068031054698
:1012A00085451D45EFF07FB98547631EF40C930615
:1012B0004030054681451945EFF03FB893060031AF
:1012C000014685454A85EFF05FB76FE0BFF8C1473B
:1012D0006319F500930680310546854513053002F4
:1012E00045BF930700026319F50093068031054658
:1012F00085451305D00269BF93070003E30CF5FC95
:10130000930700046319F50093068031054685456F
:101310001305A004B5BFB7450000130690029385DE
:1013200045E30145EFF0AF9FB5B7C9476399F400B6
:10133000930680310546854513055002A5B79307EE
:1013400020026399F4009306803105468545130514
:10135000F00289BF93072003E38CF4FC9307200479
:101360006399F40093068031054685451305C00452
:1013700015BFB745000013060003938545E30145FB
:10138000EFF0EF9915B7C5476319F40093064030A5
:10139000054681451305400205B7930710026319FE
:1013A000F40093064030054681451305E00229B755
:1013B000930710046319F4009306403005468145F5
:1013C0001305B004D5BD93071003E301F4FC9307A4
:1013D000F00FE305F4EEB745000013068003938594
:1013E00045E30145EFF0AF93D1BDEFE2FFE13E8B66
:1013F0009167BA8A9387C7E413172500BA9783A920
:10140000070001112A894E85AE84B28B368A428448
:1014100002C602C802CA02CC231E0100152585455A
:1014200005455D23C147631FFA0AC9476398FA005F
:10143000C5476315FB008545054565296314090CFF
:10144000854505655123A2865A86D6855285353550
:10145000B70704013EC62318010085476386F40CD4
:10146000DDCC09476386E40C8D466385D40C03A468
:1014700081819307F00F335474034204418063EE7B
:10148000870A9307F00763ED870A9307F00363EC7D
:10149000870AFD4763EC870ABD4763EC870A9D47CF
:1014A00063EB870A8D4763EA870A854763E9870A02
:1014B000B74500001306D008938545E30145EFF0DA
:1014C0000F8693070020FC836C009D474E85FC86A9
:1014D000E084231D0100552B85454E85F5230561CC
:1014E0006FE01FD693070004E31AFAF49307200471
:1014F000E396FAF493071004E312FBF485453715DD
:10150000200025BF85476316F90085451165E1294F
:101510001DBF8947E319F9F285452165CDBF231920
:101520000100231A0100A1B723190100E48281B749
:10153000E481C5BFF881FC821DBF1304800351B74D
:1015400013040003BDBF13048002A5BF13040002EF
:101550008DBF6144BDB74144ADB721449DB701443F
:101560008DB791670A059387C7E4AA9798434EA75A
:101570001E2793F70708EDFF828091670A0593877E
:10158000C7E4AA979C4313D78500DAA79A27137755
:1015900007086DFF93F5F50FCEA79A271377070875
:1015A0006DFF82807300203001A0EFE27FC89305B9
:1015B00070041305703EEF00F05C93057004130592
:1015C000703EEF00D068EF007054EF00503DEF0028
:1015D000F048EFF04F8101A0B71702409843B706DB
:1015E000FFF841111367170098C3D843370602006C
:1015F000758FD8C39843B706F7FEFD16758F98C34D
:101600009843B706FCFFFD16758F98C3D843B706FD
:1016100081FFFD16758FD8C39843B70600ECFD1601
:10162000758F98C33707FF0098C723A6070202C427
:1016300002C69843C166558F98C3B7160240056726
:101640009C42F18F3EC6A24785073EC4B24781E760
:10165000A247E397E7FEB71702409C431397E700C2
:101660006357070685473EC632478547631FF70421
:10167000B7170240D843B706C1FFFD16D8C3D843F9
:10168000D8C3D84313670740D8C3D843758FD8C38E
:10169000D843B7062900558FD8C39843B706000131
:1016A000558F98C3984393166700E3DD06FED84331
:1016B000B7160240719BD8C3D84313672700D8C31D
:1016C0002147DC42B18BE39EE7FE4101828002C6E6
:1016D00061BF01A001A001A001A001A001A001A083
:1016E00001A001A001A001A001A001A001A001A0F2
:1016F00001A001A001A001A001A001A001A001A0E2
:1017000001A001A001A001A001A001A001A001A0D1
:1017100001A001A001A001A001A001A001A001A0C1
:1017200001A001A001A001A001A001A001A001A0B1
:1017300001A001A001A001A001A001A001A001A0A1
:1017400001A001A001A001A001A001A001A001A091
:1017500001A001A001A001A001A001A001A001A081
:1017600001A001A001A001A001A001A001A001A071
:1017700001A001A001A001A001A001A001A001A061
:1017800001A001A001A001A001A001A001A001A051
:1017900097F1FF1F9381010D1771002013018186BE
:1017A000172500001305057C97F5FF1F9385858598
:1017B0001386818163FAC5008322050023A05500AA
:1017C00011059105E3EAC5FE138581819385C185E5
:1017D0006377B500232005001105E36DB5FEFD42DA
:1017E000739002BCAD4273904280B7620000938256
:1017F000820873A0023097F2FFFF9382228493E263
:10180000320073905230EFF03FDD97020000938278
:1018100002DA73901234730020309C4513F70701ED
:1018200013F8F70001C7D8413368E8008E2113F799
:10183000F50F39C318418146854E3D4F930F800205
:1018400093028004214E3396DE00B3F8C500631185
:1018500016039398260033131F011343F3FF3377C6
:10186000E300B318180133E7E800639FF70550C998
:101870008506E39AC6FD18C11307F00F6375B70418
:1018800054412146854E3D4F930F800293028004C0
:10189000414EB398CE0033F715016392E802131757
:1018A000260001173313EF001343F3FFB376D30081
:1018B0003317E800D98E639DF701232A1501050629
:1018C000E319C6FD54C18280E39457FA10C94DB79D
:1018D000E39757FE23281501DDB7FD571EA1894761
:1018E0005CC191471CC5828019C20CC982804CC959
:1018F0008280B7070140635A0504DC4F9356050107
:10190000131805013707300013F6F60013580801C5
:10191000B376E50063500506639BE6029306060175
:101920000D46B316D60093C6F6FFF58F99C9135727
:1019300055011377F73F12073317E800D98F635724
:101940000504370701405CCF8280DC4345BF131795
:10195000B500635607008D46B396C600E9B7135726
:1019600055011377F73F12073317E8001347F7FFC6
:10197000F98F6DBF6390E602370601405442370786
:1019800000F17D17F98F758F58C2D5F137070140E7
:101990005CC382801317B500635C07008D46B39665
:1019A000C60093C6F6FFFD8EB707000FD58FF1BFB7
:1019B0001357550112073317E8001347F7FF7D8FC0
:1019C000B707000FD98FD1B799C5371702401C4F01
:1019D0005D8D08CF8280B7170240984F1345F5FF01
:1019E000798D88CF828099C5371702405C4F5D8D15
:1019F00048CF8280B7170240D84F1345F5FF798D45
:101A0000C8CF828099C5371702405C475D8D48C7B3
:101A10008280B7170240D8471345F5FF798DC8C7B4
:101A2000828099C5371702401C4B5D8D08CB8280A0
:101A3000B7170240984B1345F5FF798D88CB82800C
:101A4000EFE20FFFB7370140631AF50085450565E2
:101A5000553F814505657D376FE0CFFFB7470040B3
:101A6000138707806319E500854511655D3F814552
:101A70001165453FD5B7938707C0E31FF5FC854542
:101A80002165453781452165EDB71A218D6793871B
:101A90000704B6217D8F9E21D58FD621D58FF621C3
:101AA000D58F9625D58FB625D58FD625D58FF625FA
:101AB000D58FD98F1EA15A2DFD779387F77FF98F88
:101AC0005EAD9E291EA982801E2189C593E7070469
:101AD0001EA18280C207C18393F7F7FBC207C183AF
:101AE000C5BF1E319206558EC207C183F99BC2073E
:101AF000C1831EB11A2D1E31B73601404207418302
:101B00001377C7F0518FC2074207138606C0C183FF
:101B100041836300C50437060040630CC502130609
:101B200006406308C50237160040130806806302AA
:101B30000503130606C0630EC50093860640630ABC
:101B4000D500B7560140138606C06304C50063196B
:101B5000D500F59BCD8F93E717001AAD1EB182809B
:101B6000D59BCDBF1E312206B206C207C183BD9BE5
:101B7000C207C1831EB18358850185671A319387D7
:101B8000F7CFD18EB3F71701D58F13984500B7362D
:101B9000014042074208C207138606C0418313581A
:101BA0000801C1836300C50437060040630CC50209
:101BB000130606406308C5023716004093080680E6
:101BC00063021503130606C0630EC5009386064024
:101BD000630AD500B7560140138606C06304C500EA
:101BE000631BD5001377F7FD3367E8001367070120
:101BF0001EAD1AB182801377F7F54D8FC5BF1E2138
:101C000037370140930607C0C207C1836300D5047C
:101C1000B7060040630CD502938606406308D502E0
:101C2000B7160040138606806302C502938606C07D
:101C3000630ED50013070740630AE50037570140DC
:101C4000930607C06304D5006316E500BA2193F735
:101C5000F7F8D98F37170040630CE50013070740EA
:101C60006308E50093F7F7CFFA21C207C183D98F44
:101C70001EA1DE215EB59E211EB5B7370140138738
:101C800007C0630EE50093870740630AF500B75766
:101C90000140138707C06304E5006314F5009C2529
:101CA0001EB985475EA982801E31922103D8250086
:101CB000C207C183F99BC207C1831EB11E315621E1
:101CC0001A2DC207C183420741831377C7F8518F8A
:101CD0009225F59BC20633660601D18F3736014047
:101CE000130806C0C182630E050113060640630A8D
:101CF000C50037560140130806C063040501631090
:101D0000C502B225DD9B03D8E500D18FD221ED9B22
:101D100093F6F6CFD18FD22533660601D18E56A128
:101D20001AADFA215AB91EB182801E3165771307A8
:101D3000F7CFC207C183BD9BC207C1831EB11E314D
:101D4000562103D88500C20713960601162DC183BC
:101D500093F7F7FD758F96214182A206558FB62124
:101D600042074183B3E606019206D58FB73601409C
:101D7000C207138806C0C183630E0501938606401F
:101D8000630AD500B7560140138806C063040501F5
:101D9000631ED502B62593F7F7F703D8C500920660
:101DA000D58FD621C207C183920693F7F7FBD58F53
:101DB000FD769386F63FF18EF225C207C183336626
:101DC00006010A06D18E13960601418252A11AAD70
:101DD000FA211ABD1EB182801E3103D88500C207C8
:101DE000C18393F7F7EFC207C1831EB11E3156219D
:101DF0005A2DC20713960601420796214183137795
:101E0000C7F8558FB621C18393F7F7DFB3E6060114
:101E1000A206D58FB7360140C207138806C041829B
:101E2000C183630E050193860640630AD500B75649
:101E30000140138806C063040501631FD502FD76C7
:101E40009386F67FF58FB62503D8C500A206D58FF9
:101E5000D621C207C183A20693F7F7BFD58FF576C7
:101E6000FD16F18EF225C207C18333660601120604
:101E7000D18E13960601418252A15AADFA215ABD64
:101E80001EB18280FD575EA12310050023130500BB
:101E9000231105002304050082802310050023116F
:101EA0000500231205002313050023140500231544
:101EB0000500231605002317050082801E2189C511
:101EC00093E717001EA18280C207C183F99BC20756
:101ED000C183CDBF8357450491C52167D98F231294
:101EE000F5048280C607C583DDBF5E2501C6DD8D92
:101EF0004EA5828093C5F5FFFD8DDDBF035885009B
:101F00001A2D1E31420813580801C2074207C18327
:101F100092064183137888FF93F7D7FD558EB365FA
:101F2000B8001377C7CFD18F0EA513671710C2075C
:101F3000C1831AAD1EB182801E2189C593E70708AF
:101F40001EA18280C207C18393F7F7F7C207C1833E
:101F5000C5BF1E2DC207C183DD9BDD8D0EAD828006
:101F60001A2DFD779387F77FF98FA205CD8FC207D2
:101F7000C1831EAD82805E2DC207C183DD9BDD8DD6
:101F80004EAD82804EB182801E2DC207C183CD9B93
:101F9000C207C1831EAD1E2DDD8D0EAD82801A2DB0
:101FA000FD779387F73FF98F1EAD1E2DA205DD8DBE
:101FB000C205C1810EAD82805E2DC207C183CD9B5B
:101FC000C207C1835EAD5E2DDD8D4EAD82805A2D80
:101FD000FD779387F73FF98F5EAD5E2DA205DD8D0E
:101FE000C205C1814EAD8280EFE28FA49A212A847E
:101FF000AE84BE21D221962509EBBE85EFF07FAEDF
:10200000EE20228551376FE0EFA491456319B700A8
:10201000BE85EFF03FB5EE2022855137EDB7214563
:10202000EE206315A70A1A3092061398870042071C
:1020300041831377F7EF420741831AB04A2C1A30D5
:102040004208420541811375C5F0518D558DB73653
:10205000014042074205138606C041831358080118
:1020600041816302C40437060040630EC4021306B4
:102070000640630AC40237160040930806806304D2
:102080001403130606C06300C40293860640630C63
:10209000D400B7560140938606C06306D400B756F5
:1020A0000140631DD4001377F7DF3367E8009367BF
:1020B00007104AAC1EB022850137B1B7FD76938672
:1020C000F65F758FD98F93E70710E5B70A307D77F4
:1020D0007D17698F1AB04A2C05671307F7CF698FF0
:1020E00003580402131586001396C600498E518FBB
:1020F0009398C700B73601404208C20842071386CA
:1021000006C01358080193D8080141836302C40430
:1021100037060040630EC40213060640630AC40279
:1021200037160040130506806304A402130606C098
:102130006300C40293860640630CD400B756014086
:10214000938606C06306D400B75601406310D402DC
:10215000F977FD173378F80033E808018567B3672E
:10216000F8005AAC1EB022859D3571BDA1669386DC
:10217000F6DF3378D800B3E707018566D58FD5B78A
:1021800093C5F5FFC205C1810EA9828093F5F51FA5
:102190004EA182800A216D8D3335A0008280EFE24E
:1021A0002F897971854513050004EFF0FF818D4774
:1021B0003ED491473ED6372501408567938707A0D7
:1021C0004C10130505802312F102EFF00FE5854551
:1021D0000545EFF06FFF0565854513050580EFF0B8
:1021E000AFFE3705160085451305050CEFF06FF0BF
:1021F0006800EFF03FC937340140C167FD176C003C
:10220000130504C03EC802C6230A0100EFF03F9F39
:1022100081460146130504C08D45EFF03FCEA94726
:102220002C08130504C02310F102EFF0FFDB1305A7
:1022300004C08545B1370546130504C08545EFF058
:10224000DFCA130504C08145EFF0DFD385451305D0
:1022500004C0EFF0BFC645616FD0DFFFEFD25FFD76
:102260007971854513050002EFF00FF68D473ED4D6
:1022700091473ED6371501408567938707A04C10DC
:10228000130505402312F102EFF02FD985450545CE
:10229000EFF08FF3854537050800EFF0EFF23705D3
:1022A000138085454105EFF0CFE46800EFF09FBD56
:1022B00037540140C167FD176C00130504C03EC8C8
:1022C00002C6230A0100EFF09F93814601461305E1
:1022D00004C08D45EFF09FC2A9472C08130504C028
:1022E0002310F102EFF05FD0130504C08545493D8E
:1022F0000546130504C08545EFF03FBF854513052E
:1023000004C0EFF0BFBB45616FD0DFF4EFD25FF2E6
:102310000D45EFE00FDBEFE0CFEC1305007EEFE0C3
:102320000FD7C165FD157D45EFE06FDC3746000036
:10233000130686E795451545EFE02FE53746000083
:10234000130686E895451545EFE02FE43746000073
:10235000130686E9E5451545EFE02FE33746000013
:10236000130646EA9305D0021545EFE00FE2374623
:102370000000130646EB930510041545EFE0EFE06F
:102380006FD05FEDEFD2DFEA79712A84AE84130556
:1023900000028545EFF04FE385451145EFF0AFE4CE
:1023A00085450545EFF04FE285450565EFF06FD4B3
:1023B0004808EFF08FD28D473ECC37150140E147FA
:1023C0003ECE4C08996713050540FC82EFF0EFC440
:1023D00085451145EFF02FE16084371400402C0053
:1023E00013050480648623170100231501002308C8
:1023F0000100EFF0DF800810EFF03FAAC16793877C
:1024000007060C10130504803ED023140102231389
:102410000102EFF09F910C1013050480EFF0DF9B99
:1024200013050480A145EFF0BFB313050480A14557
:10243000EFF07FB4130504808545EFF0FFAF8545CD
:1024400013050480EFF09FA745616FD0BFE0EFD286
:102450003FDE2A8409657971AE8441058545EFF038
:10246000AFD64808EFF06FC78D473ECCE1473ECE70
:102470004C089307000C37150140FC82EFF0EFB9D0
:1024800085450965EFF04FD460843734014013056A
:1024900004408545648623170100231501002308A5
:1024A0000100EFF03FA32C0013050440EFF02FF5DF
:1024B0000810EFF09F9EC167938707060C10130565
:1024C00004403ED02314010223130102EFF0CFFD9C
:1024D0000C1013050440EFF05F8513050440A1457F
:1024E000EFF03FA713050440A145EFF07FA71305C8
:1024F00004408545EFF05FA4854513050440EFF0E7
:10250000FF9B45616FD01FD5B3C7A5008D8B3307E7
:10251000C50081E78D4763EDC700AA87637EE508A4
:10252000942185078505A38FD7FEE3EBE7FE828024
:1025300093763500AA8789CA942185078505A38FDC
:10254000D7FE93F63700C5BF9376C7FF138606FE06
:1025500063F0C70683A3050083A2450083AF85000F
:1025600003AFC50083AE050103AE450103A385019A
:1025700083A8C5019385450223A0770003A8C5FF62
:1025800023A2570023A4F70123A6E70123A8D7011C
:1025900023AAC70123AC670023AE17019387470224
:1025A00023AE07FF75B790419107910523AEC7FE93
:1025B000E3EBD7FEE3E6E7F6828039713EDA2ED20E
:1025C00032D436D63AD842DC46DE9387C18022CC5C
:1025D000804326CA06CEAA8409C41C4C99E32285EE
:1025E00015220C4454102686228536C6292FF24027
:1025F0006244D2442161828035713ECBB7070080AE
:1026000093C7F7FF3ECE3EC8C1779387872032C578
:1026100036C73AC942CD46CF3ECA9387C1802AC445
:102620002ACC884334012E862C0086DE36C2212136
:10263000A24723800700F6500D618280AA87850794
:1026400003C7F7FF6DFF3385A7407D1582804111D9
:1026500022C406C62A844EA572A523200500232283
:102660000500232405002322050623280500232A2C
:102670000500232C0500214681451305C505EFD033
:102680003FBE97170000938787CE5CD09717000056
:102690009387A7D01CD497170000938787D45CD466
:1026A000971700009387E7D600D01CD8B240224489
:1026B00041018280971500009385250A89AA41115E
:1026C00026C2130680069384F5FFB384C4024AC071
:1026D0002E8922C406C693854407792A2A8401CD0F
:1026E0002320050023222501310508C41386840612
:1026F0008145EFD0FFB62285B24022449244024980
:10270000410182801C4DA5E7411106C622C49707EE
:102710000000938767FA1CD5938701819C4323248B
:10272000050423260504232805046314F5008547C2
:102730001CCD2A84352848C022851D2808C422853E
:10274000052848C4484001469145EFF05FF0084431
:102750000546A545EFF0BFEF48440946C945EFF0EF
:102760001FEF85471CCCB240224441018280828009
:1027700041119387018126C284434AC006C69C4CFE
:1027800022C42A8999E32685B53F93848404804432
:10279000DC40FD1763D607009C40B9CF8440C5BF1D
:1027A0000317C40039E7C1778507232204062320D5
:1027B000040023220400232404005CC42328040012
:1027C000232A0400232C0400214681451305C40557
:1027D000EFD01FA9232A0402232C0402232404047B
:1027E000232604042285B240224492440249410136
:1027F00082801304840671BF91454A85EFF03FEC57
:1028000088C049FDB1472320F9000144E1BF797137
:1028100022D44AD052CC56CA5AC85EC606D626D250
:102820004ECE2A8AAE8A130485040149054BFD5B0E
:1028300009ECB25022544A8592540259F249624A34
:10284000D24A424BB24B4561828004448329440002
:10285000FD1963D409000040E1BFDE24637BFB0067
:102860008397E40063877701A6855285829A33694E
:10287000A90093848406E9BF011126CA9384350018
:10288000F19806CE22CC4AC84EC6A104B14763F5E2
:10289000F404B14463E4B4042A89EF106009938717
:1028A000818298433A8429E49387C1829C4399E7C3
:1028B00081454A85EF00D02823A6A182A6854A85B6
:1028C000EF001028FD5963193507B1472320F9009F
:1028D0004A85EF10000629A0E3DE04FAB1471CC1C7
:1028E0000145F2406244D2444249B24905618280C6
:1028F0001C40858F63CF0702AD4663F6F6001CC00F
:102900003E9404C031A05C406313870223A4F1828B
:102910004A85EF1000021305B40093074400619943
:102920003307F5405DDF3A94898F1CC05DBF5CC3FF
:10293000C5B72287404085BF130435007198E30274
:1029400085FCB305A4404A85EF00901FE31B35FBCF
:10295000ADBF01114AC803A9850022CC52C45AC098
:1029600006CE26CA4EC656C22E84328B368A63E9FC
:102970002609DE2513F7074851C304408C495848FF
:10298000AA8AB389B4408D44B384E4020947B3C42E
:10299000E402138716004E9763F3E400BA8493F7BA
:1029A0000740BDCFA6855685EFF01FED2A891DE1B2
:1029B000B14723A0FA005E247D5593E707045EA487
:1029C000F2406244D2444249B249224A924A024BFE
:1029D000056182800C484E86EFF01FB35E2493F7AA
:1029E000F7B793E707085EA42328240144C84E994B
:1029F000B38434412320240104C4528963732A011F
:102A0000528908404A86DA85EF00306E1C44014541
:102A1000B38727411CC41C403E99232024014DB795
:102A200026865685EF00907B2A895DFD0C485685E9
:102A3000EF005070B5BFDE25717126D34AD14ECF5D
:102A400006D722D552CD56CB5AC95EC762C566C3DA
:102A500093F70708AA892E89B284B9C39C49A9E3D0
:102A60009305000436C6EFF03FE12320A900232898
:102A7000A900B24615E1B14723A0F9007D55BA502F
:102A80002A549A540A59FA496A4ADA4A4A4BBA4BC2
:102A90002A4C9A4C4D61828093070004232AF90046
:102AA00093070002A30CF1029307000302DA230D3F
:102AB000F10236CE930B5002971A0000938ACA4651
:102AC000054C294B26841C2099C363997709B30CC4
:102AD0009440638E0C00E6862686CA854E85EFF00C
:102AE0005FE7FD57630BF518D256E69636DA1C20E1
:102AF00063850718FD579304140002D002D63ED216
:102B000002D4A301010682DC8C2015465685EF0015
:102B1000505C13841400825721E513F7070109C79D
:102B200013070002A301E10613F7870009C7130783
:102B3000B002A301E10694201307A002638AE60213
:102B4000B2572684814625461820930514001307A2
:102B500007FD6372E6068DC63ED61DA00504A5B727
:102B6000330555413315AC00C98F3ED0A28469BFEF
:102B7000724793064700184336CE634707023AD69A
:102B800018209307E002631DF70418309307A00292
:102B9000631BF702F2470904138747009C433ACEB0
:102BA00063C107023ED22DA83307E04093E7270018
:102BB0003AD63ED0F1B7B387670385462E84BA97DD
:102BC00061B7FD57C5B7050402D281468147254646
:102BD000182093051400130707FD6376E606F9F243
:102BE0000C200D461715000013058534EF00704EBC
:102BF00011CD971700009387A7331D8D930700040D
:102C0000B397A700025505045D8D2AD00C20194604
:102C1000171500001305053293041400230CB102AC
:102C2000EF00304B25C597D7FFFF9387A73D95E76A
:102C30000257F2471377071009CF91073ECED257BC
:102C4000D2973EDA41B5B387670385462E84BA979B
:102C500041B79D07E19BA107D5B77808970600000B
:102C6000938666CF4A860C104E8597000000E700D9
:102C70000000FD572A8AE314F5FC8357C9007D55EF
:102C800093F70704E39D07DE5255D5BB78089706F6
:102C90000000938646CC4A860C104E850921D1BF90
:102CA0001C46FD171CC663D90700184E63C5E70014
:102CB000A9476393F500B9AF1C422E85138717000F
:102CC00018C28CA38280011122CC26CA4AC84EC6E3
:102CD00052C406CE2A89AE893284B304D6007D5A06
:102CE00063149400014501A80C204E864A854D3F8F
:102CF0000504E31745FFF2406244D2444249B24919
:102D0000224A05618280357122CD26CB4AC94EC741
:102D100006CF52C556C35AC1DEDEE2DCE6DAAA8926
:102D2000AE843289368409C51C4D99E3EFF09F9D2E
:102D3000971700009387471B6399F40C83A44900FD
:102D4000DE24A18BEDC79C48FDC393070002A304BA
:102D5000F1029307000302D22305F10222C6930B6E
:102D60005002971A0000938A2A1C054C294B4A846A
:102D70001C2099C3639F770DB30C2441638E0C0014
:102D8000E6864A86A6854E85EFF0FFF3FD57630180
:102D9000F51E9256E69636D21C20638B071CFD5713
:102DA0001309140002C802CE3ECA02CCA3090104D2
:102DB00082D48345090015465685EF0090311304EF
:102DC0001900C24749E913F7070109C713070002B1
:102DD000A309E10413F7870009C71307B002A30989
:102DE000E104834609001307A002638EE606F2475A
:102DF0004A8481462546182093051400130707FDD1
:102E00006376E60AADCA3ECEBDA097170000938751
:102E1000A70F6395F40083A489001DB797170000DE
:102E20009387870AE39EF4F083A4C90011BFA685A7
:102E30004E85F92519D97D55FA406A44DA444A4944
:102E4000BA492A4A9A4A0A4BF65B665CD65C0D611F
:102E50008280050431BF330555413315AC00C98F5D
:102E60003EC82289B9B7324793064700184336C691
:102E7000634707023ACE18209307E002631DF70468
:102E800018309307A002631BF702B24709041387A7
:102E900047009C433AC663C107023ECA2DA83307C8
:102EA000E04093E727003ACE3EC8F1B7B387670307
:102EB00085462E84BA9781B7FD57C5B7050402CA67
:102EC000814681472546182093051400130707FD06
:102ED0006376E606F9F20C200D461715000013057F
:102EE0002505EF00101F11CD9717000093874704A9
:102EF0001D8D93070004B397A700424505045D8D1F
:102F00002AC80C201946171500001305A50213093D
:102F100014002304B102EF00D01B35C197D7FFFF87
:102F20009387470E95E74247B2471377071009CFBB
:102F300091073EC69257D2973ED215BDB38767031D
:102F400085462E84BA9741B79D07E19BA107D5B767
:102F5000780097060000938646D726860C084E8593
:102F600097000000E7000000FD572A8AE314F5FCF3
:102F7000DE2493F70704E39007EC125575BD780043
:102F800097060000938666D426860C084E85012A93
:102F9000E1BF797156CA9C49BA8A984522D426D293
:102FA0004ECE52CC06D64AD05AC85EC6AA892E84C6
:102FB000B284368A63D3E700BA879CC003473404DF
:102FC00019C385079CC01C4093F7070281C79C402A
:102FD00089079CC00329040013796900631A09005A
:102FE000130B9401FD5B5C449840998F634CF9048A
:102FF0001C408346340493F70702B336D000A5EB98
:1030000013063404D2854E85829AFD576303F50476
:103010001C4011469840998B544481446397C700E3
:10302000B384E64063D3040081441C4418486354CD
:10303000F700998FBE94014969047D5B639824056C
:10304000014509A885465A86D2854E85829A631E17
:1030500075017D55B250225492540259F249624A88
:10306000D24A424BB24B456182800509ADBF33075E
:10307000D40013060003A301C70403475404938735
:103080001600A2978906A381E7049DBF8546228684
:10309000D2854E85829AE30E65FB050945B77971A5
:1030A00022D426D24AD04ECE06D652CC56CA5AC8C0
:1030B000B689942D930790063289AA842E841386AC
:1030C0003504638DF60263E2D706930780056386B5
:1030D000F61863EDD700638E062093073004638EE5
:1030E000F60A930A24042301D404C9A093073006E6
:1030F0006385F60A93074006E395F6FE1C400843F5
:1031000093F6070893054500C5C61C410CC363D858
:1031100007001307D002B307F040A301E404971699
:1031200000009386A6E1294765A8930700076382FC
:10313000F61663E5D7029307E0066389F61893074E
:10314000F006E390F6FA0C401C4313F805081385CB
:1031500047006307080608C39C4385A893075007E8
:10316000E383F6FE930780076389F612930730071F
:10317000E399F6F61C43D04181459386470014C37A
:1031800083AA07005685B12701C53305554148C0BC
:103190005C401CC8A301040461A81C43930A2404D6
:1031A000938647009C4314C32301F4048547D5B795
:1031B00093F607041C410CC3B9DAC207C18781BF6B
:1031C00093F5050408C3C9D99E231307F006638746
:1031D000E60E97160000938666D62947A3010404DD
:1031E0004C400CC463C5050008406D9908C099E3C4
:1031F000B28A89CDB28AB3F5E702FD1AB6958C2161
:103200002380BA00B3D5E70263F0E70CA147631E41
:10321000F7001C40858B91CB58401C4863C7E700E2
:1032200093070003A38FFAFEFD1A3306564110C818
:103230004E87CA867000A2852685EFF09FD57D5AFD
:10324000631D450B7D55B250225492540259F249E8
:10325000624AD24A424B45618280A382D5049716C6
:1032600000009386A6CD0C40084313F805081C41C6
:103270001105630D080208C313F7150001C793E594
:1032800005020CC04147B9FB0C4093F5F5FD0CC09D
:10329000B1B79C4193E707029CC193078007A30243
:1032A000F404971600009386A6CA75BF13F80504A8
:1032B00008C3E30308FCC207C1837DBF9716000063
:1032C0009386C6C7214719BFAE8735B794411C43C3
:1032D000CC4913F80608138547006306080008C3A5
:1032E0009C438CC339A008C393F606049C43F5DACB
:1032F0008EA323280400B28A25BF14485686CA85A7
:1033000026858299E30045F51C40898B8DE7B247FD
:103310004844E35AF5F23E853DB785465686CA8550
:1033200026858299E30065F3050A5C443247998F4C
:10333000E345FAFEE9BF014A930A94017D5BF5B7C4
:10334000411122C42A842E8523AC018406C6EF00D5
:10335000407BFD576317F500938781859C4391C39C
:103360001CC0B240224441018280411122C42E84FB
:103370008395E50006C67D2D634905007C48AA9724
:103380007CC8B2402244410182805E247D777D1753
:10339000F98F5EA4FDB7DE25011122CC26CA4AC8EA
:1033A0004EC606CE93F70710AA842E843289B689BA
:1033B00091C78395E5008946014611215E247D77FA
:1033C0007D17F98F5EA48315E4006244F240CE8637
:1033D0004A86B24942492685D2440561DDA8411199
:1033E00022C42E848395E50006C6D12EFD575A24AB
:1033F000631AF500FD77FD17F98F5EA4B2402244F1
:10340000410182808567D98F5EA468C8C5BF839556
:10341000E500F5A2011122CC26CA4AC806CE4EC646
:10342000AA842E89328409C51C4D99E3EFF08FAD33
:1034300097170000938747AB6317F406C0401C4CF6
:103440001CC45E24A18BC1C31C48B5CF1C480840D6
:103450009379F90F1379F90F1D8D5C486346F500D8
:10346000A2852685CD2C25E51C440505FD171CC429
:103470001C401387170018C0238037015C486388FD
:10348000A7005E24858B81CBA9476316F900A2852E
:103490002685D1240DEDF24062444A85D24442494A
:1034A000B24905618280971700009387E7A56314EE
:1034B000F400804469B7971700009387E7A0E310F2
:1034C000F4F8C044ADBFA28526851D2841D17D59A1
:1034D000D9B7411122C42A842E85B285368623AC01
:1034E000018406C6EFC0DFFFFD576317F500938721
:1034F00081859C4391C31CC0B2402244410182801B
:1035000041119387C18026C2844322C44AC006C6A3
:103510002A892E8491C49C4C81E72685EFF08F9EEA
:10352000971700009387479C631BF402C040031762
:10353000C40093170701C18393F68700ADEA93F6A1
:10354000070195EEA5472320F900136707045AA445
:103550007D55B2402244924402494101828097172E
:1035600000009387679A6314F4008044C9B79717E3
:10357000000093876795E31CF4FAC0444DBF918B1C
:103580009DC34C5889C9930744046384F5004A8558
:103590005526232A04025E242322040093F7B7FD54
:1035A0005EA41C481CC05E2493E787005EA41C48F0
:1035B00099EB5E241307002093F707286385E70043
:1035C000A2854A85B52C5E2413F717001DC35C48FD
:1035D00023240400B307F0401CCC1C480145B5FB74
:1035E0008317C40013F707082DD793E707045EA4D9
:1035F00085B7898B014791E3584818C4F9BF411139
:1036000022C42A842E8523AC018406C66D29FD5769
:103610006317F500938781859C4391C31CC0B2401A
:10362000224441018280DE25011122CC26CA06CE29
:103630004AC84EC613F78700AA842E8479EBD84176
:10364000634DE000B841634AE0000145F240624446
:10365000D2444249B2490561828058547DD703A9BA
:1036600004009396370123A0040063DB060670482C
:103670005E24918B99C75C401D8E5C5899C33C4079
:103680001D8E5C540C50814626858297FD575A2426
:10369000631DF5009440F54763E8D706B70740205F
:1036A0008507B3D7D700858BA5C31C482322040008
:1036B0001CC09317370163D80700FD576314F5004A
:1036C0009C4091E368C84C5823A02401BDDD9307BA
:1036D00044046384F5002685B12C232A0402B5B77F
:1036E0000C500146854626850297FD572A86E31130
:1036F000F5F89C40B5DF75476385E700594763934C
:10370000E70423A0240191B7136707045AA47D5549
:1037100035BF83A90501E38A09F203A905008D8B52
:1037200023A0350133093941014791E3D84918C431
:10373000E35D20F11C540C50CA864E862685829784
:103740006347A0005E2493E707045EA4C9B7AA9963
:103750003309A940F1BF9C49ADC3011122CC06CE6B
:103760002A8419C51C4D89E72EC6EFE0BFF9B24582
:103770009707000093874777639CF5004C40839739
:10378000C5009DC722856244F24005616FF0BFE924
:1037900097070000938747776394F5000C44C5B7FB
:1037A0009707000093874772E39BF5FC4C44C1BF29
:1037B000F2406244014505618280014582804111E9
:1037C00022C42A842E85B285368623AC018406C69F
:1037D000292EFD576317F500938781859C4391C37C
:1037E0001CC0B2402244410182801971A6DAAE8425
:1037F0008395E500A2DC86DE328463DB0500DE24EF
:1038000023A0060093F707089DE39307004015A047
:10381000300836C6B124B246E34305FE7247BD67A1
:10382000F98F7977BA9793B717009CC2F9BF9307BE
:1038300000041CC0F6506654D654014509618280CC
:10384000DE25011122CC06CE26CA4AC8898B2E84D9
:1038500089CF930774041CC01CC885475CC8F2401C
:103860006244D24442490561828074003000AA84D7
:10387000EFF0BFF7A2452A892685EFE0FFFF19E99F
:103880008317C40013F7072079FBF19B93E7270008
:103890005EA4C1B797F7FFFF938707E29CD45E242D
:1038A00008C008C893E707085EA4A2475CC8B247EF
:1038B00099CB8315E4002685C92A11C55E24F19BA6
:1038C00093E717005EA45E243369F90023162401F0
:1038D00079B793F5F50F2A966314C50001458280E8
:1038E0001C21E38EB7FE0505C5BF63F1A504B386B1
:1038F000C500637DD5029345F6FF8147FD176393AD
:10390000F50082803387F600034807003387C7003D
:103910002A9723000701DDB73387F5001423330707
:10392000F500850714A3E319F6FE82808147E5BF01
:1039300082808280DDC183A7C5FF411122C406C6F3
:1039400026C21384C5FF63D307003E94AA84EFF018
:103950003FFE938781829C4381EF2322040023A4AE
:1039600081822244B2402685924441016FF07FFC5F
:10397000637EF40014403307D4006396E700984355
:10398000DC43369718C05CC0D9BFBA87D84319C387
:10399000E37DE4FE94433386D700631F8600104026
:1039A000B29694C33386D700E31DC7FA1043584339
:1039B000B29694C3D8C375B76375C400B1479CC0B1
:1039C0004DB71040B306C4006316D70014435843E4
:1039D000B29614C058C0C0C369B7828081E5B28571
:1039E0006FE09FE9011122CC06CE26CA4AC84EC616
:1039F000328401EEEFF01FF40149F24062444A853F
:103A0000D2444249B24905618280AE84AA895520D8
:103A10002689E37485FEA2854E85EFE0FFE52A89BD
:103A200069DDA6852286EFE03FAEA6854E85EFF0E4
:103A30007FF0E1B7411122C42A842E85B2853686F3
:103A400023AC018406C64528FD576317F50093870C
:103A500081859C4391C31CC0B240224441018280B5
:103A6000411122C42A842E85B28523AC018406C666
:103A70008D20FD576317F500938781859C4391C383
:103A80001CC0B240224441018280411122C42A84D8
:103A90002E8523AC018406C69920FD576317F500D7
:103AA000938781859C4391C31CC0B240224441014D
:103AB000828083A7C5FF1385C7FF63D50700AA953A
:103AC0009C413E9582809307800523ACF1847D550F
:103AD00082809307800523ACF1847D558280930713
:103AE000800523ACF184014582809307800523ACD7
:103AF000F1847D5582809307800523ACF1847D5548
:103B00008280938701839C4391C73E9523A8A1821D
:103B10003E8582809387C1853E9523A8A1823E85FC
:103B2000828000004C6F67206D657373616765204C
:103B300066726F6D202573206C696E652025642088
:103B40003A222573222E0D0A00000000417373658E
:103B50007274206572726F720000000066696C6595
:103B60003A2025730000000066696C653A206D6498
:103B70006B2F2573000000006C696E653A20256488
:103B800000000000417373657274206572726F7279
:103B900020696E202573206C696E652025642E0DCA
:103BA0000A0000000000000000000000002F0000DC
:103BB00000000700070000147F147F1400242A7FF0
:103BC0002A1200626408132300364955225000006F
:103BD0000503000000001C224100000041221C00DF
:103BE0000014083E08140008083E0808000000A061
:103BF000600000080808080800006060000040201D
:103C000010080402003E5149453E0000427F40003A
:103C1000004261514946002141454B3100181412C0
:103C20007F10002745454539003C4A49493000018D
:103C30007109050300364949493600064949291EDC
:103C4000000036360000000056360000000814223E
:103C5000410000141414141400004122140800023E
:103C60000151090600324959513E007C1211127C63
:103C7000007F49494936003E41414122007F414190
:103C8000221C007F49494941007F09090901003E82
:103C90004149497A007F0808087F0000417F4100C0
:103CA000002040413F01007F08142241007F404036
:103CB0004040007F020C027F007F0408107F003E1E
:103CC0004141413E007F09090906003E4151215E04
:103CD000007F091929460046494949310001017F01
:103CE0000101003F4040403F001F2040201F003F97
:103CF0004038403F00631408146300070870080749
:103D000000615149454300007F4141000204081011
:103D10002040000041417F000004020102040040F5
:103D200040404040000001020400002054545478F8
:103D3000007F484444380038444444200038444418
:103D4000487F00385454541800087E0901020018B6
:103D5000A4A4A47C007F080404780000447D4000F3
:103D6000004080847D00007F102844000000417FD7
:103D70004000007C04180478007C080404780038B3
:103D80004444443800FC242424180018242418FC3B
:103D9000007C0804040800485454542000043F44A4
:103DA0004020003C4040207C001C2040201C003C67
:103DB0004030403C004428102844001CA0A0A07CB7
:103DC000004464544C441414141414142E2E2F7AEA
:103DD000662F7A665F6465766963655F6D707536B8
:103DE0003035302E630000004D50553630353020D0
:103DF00073656C6620636865636B206572726F72B1
:103E00002E0000002E2E2F7A662F7A665F6465766C
:103E10006963655F7466743138302E63000000009A
:103E200000080140000C0140001001400014014056
:103E3000001801402E2E2F7A662F7A665F64726911
:103E40007665725F7370692E630000000030014078
:103E500000380040003C0040003801400044004071
:103E600000480040004C0040005000400018004056
:103E7000001C00400020004045484F50313044466F
:103E80004655544A3630000048454C4C4F20574F59
:103E9000524C44203A2900004D50553E3E414E4779
:103EA0004C453A00454E434F444552413E3E565FD5
:103EB000413A0000454E434F444552423E3E565F14
:103EC000423A000000000000000000000000000076
:103ED00000000000000000000000000000000000E2
:103EE00000000000000000000000000000000000D2
:103EF00000000000000000000000000000000000C2
:103F000000000000000000000000000000000000B1
:103F100000000000000000000000000000000000A1
:103F200000000000232D302B20000000686C4C00A6
:103F300065666745464700003031323334353637E1
:103F400038394142434445460000000030313233A5
:103F500034353637383961626364656600000000C5
:103F600000000000E43E0000043F0000C43E0000EA
:103F70000000000000000000000000000000000041
:103F80000000000000000000000000000000000031
:103F90000000000000000000000000000000000021
:103FA0000000000000000000000000000000000011
:103FB0000000000000000000000000000000000001
:103FC0000100000003000000FFFFA08000000020AF
:083FD0000000002000000000C9
:00000001FF
